:020000040000FA
:0600000007EF13F01200EF
:0600080004EF08F01200F5
:060018000CEF08F01200DD
:0610000007EF13F01200DF
:021006000000E8
:0610080040EF10F01200A1
:02100E001200CE
:061018008BEF10F0120046
:02101E003AECAA
:101020000EF0A0940F015F6B626A536B88EC0DF0B9
:10103000BEEC0DF0DF6AC6EC0DF003E278EC0DF0CB
:10104000FAD7648C0F015C6B6498649C62A607D02D
:1010500062960001776B7C6B7D6B7E6BF7D700012E
:10106000010E906F916F926B936B846BDF6A030E2E
:10107000DF5C1AE2EA6ADF343DEC0EF0EA22EE6A47
:10108000ED6AEA6ADF3444EC0EF0EA22EE6AED6AB9
:10109000DF5057EC0EF0EA22EF6ADF5052EC0EF010
:1010A000EA22EF6ADF2AE3D70001080E6D6F020E15
:1010B0006E6F0F01160E536F0201300E026F020E9B
:1010C000036F080E016F840E006F0001616B606B8F
:1010D000E55252EF0DF03AEC0EF00001600507E129
:1010E00064BA05D0626A60806088020E606F6250E8
:1010F000040B05E06050040B02E062949AD864B2DD
:1011000046D06250010B09E06050010B06E087DF1A
:10111000A0840001040E606F62906250100B05E025
:101120006050100B02E07AD8629862AC0FD060ACCD
:1011300005D0DDEC0DF0730E3FEC0DF0629C00016C
:101140008E5101E08E078E5101E111DA6250200BC1
:1011500004E06050200B01E04DD86250020B0CE01F
:101160006050020B09E0DDEC0DF0E6687F0EE66EE4
:101170004BEC0EF00F015F6B040E0001E76E60197F
:10118000E8AE02D0E73402D0E750605D02E2A194FD
:101190002ED060A62BD0DF6A040EDF5C27E262A6A9
:1011A00025D063CF85F000018551780BE842E842F5
:1011B000E842866F629685B504D0865152EC0EF0F7
:1011C00003D0865157EC0EF0EA22EF70865102E10F
:1011D0003ED80AD0000EE66EE66A850EE66E000E78
:1011E000E66E720E3FEC0DF0DF2AD6D7A194E552E1
:1011F00052EF0DF00F0153A10FD05EEC0DF0EF5048
:10120000800809E148EC0DF0EF50840804E15EEC41
:101210000DF08C0EEF6E5391629A1200608462980A
:1012200064820001010E846FA4EC0DF0750E3FEF97
:101230000DF00001846BA4EC0DF0740E3FEC0DF08A
:101240006492609462A402D06294FCD712003AECDB
:101250000EF000012D0E8E6FFD0E851540E17E0E05
:101260008515E8407F0B040DF3CF63F0F4CF64F0F5
:10127000000E6327020E642363C065F064C066F04D
:1012800065755EEC0DF0EF503C0BE842E8420D084E
:1012900024E1DF6A080EDF5C1AE25EEC0DF0020E5C
:1012A000E926000E91EC0DF0EF50E66EDF50EA6A91
:1012B000300FE96E020EEA22E552E750EF6E5EEC67
:1012C0000DF06AEC0EF0EE2AEF22DF2AE3D75EEC97
:1012D0000DF00AEC0EF00AD807D025D805D0FD0E87
:1012E0008515040801E12ED8E552DCD30001736BAB
:1012F0008F6B926B936B876B746BCADBEF9E6D7514
:10130000C7DBEF9E6D75F9EC0DF0EF9E776B786B98
:10131000796B7C6B7D6B7E6B53D8A4EC0DF0030E68
:10132000AEDB6FEF0BF0020E0001745D02E1DBEF4C
:101330000BF0746B875104E199DB8C0EEF6E120099
:10134000876B12003AEC0EF0A3DBEF50400B01E08C
:10135000010EDF6E00016D75080E605D0BE132C29B
:101360005CFF0F015C5103E00001100E02D0000190
:10137000040E606F740513E18BDBA5DBDDD9020E73
:101380000001735D03E184DB840E07D0DF5003E1CD
:101390007FDBC80E02D07CDB880EEF6E0FD07CAFF7
:1013A0000CD07F51801107E005D080C0FAFF00010A
:1013B0007F51F96EFADF00017C9F746BE55272D3A6
:1013C00002013051600BE842E842E842E842E8425C
:1013D000000901E0120031510C0A45E00B0A3FE020
:1013E0000C0A31E0010A22E00B0A1EE0020A1CE0AE
:1013F000030A18E0080A10E0010A0CE00F0A08E0EE
:10140000030A01E012000001778F080E606F1200DE
:10141000F9EF0AF03FEF0CF00001610E756F000E5E
:10142000766F0CD036EF0BF034EF0AF03451000138
:10143000756F766B620E7527000E76237781010E2D
:10144000786F778F12000001778F02013451EA6ABA
:10145000620FE96E000EEA2232C2EFFF120074DB67
:10146000020E3FEF0DF0120018DB030EE126020121
:10147000320510E130511F0B00090CE10001778F9C
:10148000030E0201315D04E10001010E836F02D001
:101490000001836B0201325163E130511F0B0208DE
:1014A0005FE134510F0B00095BE034510F0B020870
:1014B00057E3200E0001605D53E1778F020134BFD6
:1014C00004D0C3DB47DB4CDB03D0C4DB43DB4CDBAA
:1014D000EA22020EEFCFDBFF77DB010B03E1000E08
:1014E000DF9401D0DF8434BF02D0AFDB01D0B2DBA8
:1014F000EA22DECFEEFFDDCFEDFF030E315D0CE122
:10150000DBDB07E034BF02D02BDB01D02DDBEA228E
:10151000EF82840EE4DB24D0DF74CEDB06E0B3DAA6
:10152000EF9EB1DAEF8C80DB02D0ADDAEF8CDF74A6
:101530004BDB020B06E1C0DB11E0A5DAEF50040B38
:101540000DE1020134BF02D00BDB01D00DDBEA223A
:10155000EF923B0E106EB4DB67DB02D03B0EB0DBCC
:10156000030EE15C02E2E16AE552E16E9BD200010A
:10157000905121E1010E906F91511DE1010E916F8B
:10158000020E745D07E184DAEE52EF6A81DAC80E6A
:10159000EF6E120074050FE1876B90DAEE52080EC1
:1015A000EF6E8CDA37DB8ADA840EEF6E010E876F0E
:1015B0005DDA800EEF6E12000001926B936B020EEB
:1015C000745D04E181DB7FDA14DB10D07851020115
:1015D000365D000179510201375904E236C278F0D4
:1015E00037C279F0A9D854DA6EDA52DAC80EEF6E43
:1015F0001200800E0201305D38E10001C00E776FED
:1016000002013351030A1AE0010A09E0030A2BE13F
:1016100000019E0E756F230E766F120E1ED0E2DA59
:101620005F0EF626240EBADA020E0001D4DAF5CFE8
:1016300078F0030ED0DAF5CF79F01200030E325DA8
:101640000FE2D0DA610EF626240EA8DA75C0F6FF96
:1016500076C0F7FF0800F5500001786F796B120033
:101660000001776B12000001776B1200D9DA0201DA
:10167000386B396B30511F0B020A11E0030A0CE082
:10168000010A1CE10001778F020138810001830506
:1016900015E10201388312D00001778F0FD00001CD
:1016A000778F020134BF02D0D0DA01D0D3DA52DA18
:1016B000EAD9EF50040B02E0010E386F000177AF5A
:1016C00007D0380E756F020E766F7781020E786F35
:1016D000020EE15C02E2E16AE552E16EE3D1649858
:1016E000000177BF0DD07CAF09D0020E746F93510B
:1016F00001E162DF0001916B906B12001EEF0EF0B2
:10170000020130AF0DD00001010E746F925101E162
:1017100053DF0001916B906B8F510DE1B7EF0AF031
:101720000001020E746FA2D9840EEF6E916B906B64
:101730008F5101E11CDF12009DDA080EDF6E0001FF
:10174000785D000E79590AE278C0DFFF735102E13B
:10175000010E03D0730502E1020E736FDF50116AB0
:10176000E850785D786F11507959796F91D9EE52C0
:10177000DFCFEFFF380E816F020E826F77B10DD091
:10178000DF5017E075C0F6FF76C0F7FF752B000E2F
:1017900076230800F550CBD9F3D7DF500AE075C0A7
:1017A000E9FF76C0EAFF752B000E7623EF50BFD914
:1017B000F4D7E55277D134DA81D9EE52EFCFDFFF9B
:1017C000DFCF10F0105000017D5D000E7E5902E267
:1017D0007DC0DFFFDF50106E116AE8507D5D7D6FC8
:1017E00011507E597E6F010EDB6ADF50F36E010EE1
:1017F000DBCFF4FFF350F45C16E2010EDB50EA6A33
:10180000380FE96E020EEA22EF50E66E7AC0E9FF69
:101810007BC0EAFF7A2B000E7B23E552E750EF6E88
:10182000010EDB2AE2D7000ED8807D55000E7E55D2
:101830000DE24ADA48D942D9EF50400B03E1D9D939
:10184000C80E02D0D6D9880EEF6E12D00FD9840EF2
:10185000EF6E7F51801107E005D080C0FAFF0001D4
:101860007F51F96EFADF00017C9F8F5101E17FDE2D
:10187000020EE15C02E2E16AE552E16E13D1FAD9AF
:101880000001778F45D9DF6A81D902E231D9FCD7CF
:10189000648C010EE66EE66AE66A620EE66E000E83
:1018A000E1D9649C0001080E6D6F020E6E6F000E90
:1018B000636F020E646F63C065F0666F32C261F0E1
:1018C000615102E1100E0BD0010EE66EE66A610E68
:1018D000E66E000EE66E010ED2D80001200E606F9B
:1018E000E552E0D09DD9000EDE6E020EDD6EF1D81D
:1018F000040DF4CF11F0D9CFE9FFDACFEAFFF350AE
:10190000EE261150ED22BFD8EF9EFD0EDB5002E116
:10191000EAD801D0AFD8EA22DECFEEFFDDCFEDFF6F
:10192000B2D8EF9CB0D8040EE926000EEA22EF8C64
:10193000020EE15C02E2E16AE552E16EB3D070D9D9
:10194000FD0EDBA402D0E66A31D9FD0EDBA203D086
:10195000010EE66E2BD9FE0EDB50116A530F106E8E
:101960000F0E06D990D8FD0EDBCFEFFF020EE15C23
:1019700002E2E16AE552E16E95D052D9FE0EDB50EB
:1019800002E15CD905D0A5D839D9A3D8010F36D941
:10199000020EE15C02E2E16AE552E16E83D040D9D9
:1019A000FD0EDB5002E066D801D09DD8D3D8D9CF48
:1019B000E9FFDACFEAFFEE50ED1003E1F36AF46AD3
:1019C00021D061D887D9FB0EDBCFEEFFFC0EDBCF39
:1019D000EDFF59D8EE52FA0EDBCFEFFF400E70D973
:1019E000880E7DD9FD0EDB5002E044D801D07BD8B3
:1019F000EA22EF74DECF10F0DDCF11F010C0F3FF5C
:101A000011C0F4FF020EE15C02E2E16AE552E16E10
:101A100049D043D864A812D022D9400EEE16EE6AFF
:101A2000EE6AEE6A1CD9EE7C25D8EA22EF74400EED
:101A3000106E15D91050EF1612D9EF7C33D0646AAE
:101A4000606A0001606B1200000160510EE1646A7F
:101A5000606A94D8D08EA284A084F28E64B602D03C
:101A60006486FCD70001010E606F12002DD9D2D818
:101A7000F9EF0DF0FE0EEA6ADB343DEF0EF0E66E94
:101A8000E66A4BEF0EF0DECFE9FFDDCFEAFF120092
:101A90006DC0E9FF6EC0EAFF1200D9CFE6FFE1CFCB
:101AA000D9FF1200E552E7CFD9FF120034510F0BD6
:101AB000E96EEA6AD890E936EA36120063C0E9FFB7
:101AC00064C0EAFF120006D9380EEE6E020EED6E0B
:101AD0001200FD0EDB50E824126EFE0EDB50040DEA
:101AE000F35012241200FE0EEA6ADB3444EF0EF0CB
:101AF000DF50040DF3CFE9FFF4CFEAFF000EE92633
:101B0000020EEA22EE6AEE6AEE6AEE6ADF2A12003E
:101B1000020EE66EE66AE66A540EE66E0F0E32EFCD
:101B20000EF0EA22EE50EFCFEAFFE96E1200E66E09
:101B300081C0E9FF82C0EAFF812B000E8223E552BB
:101B4000E750EF6EDF061200000EE66EE66AE66E04
:101B5000E66A1200EA22EECFDEFFEDCFDDFF1200D3
:101B600034510F0B52EF0EF034510F0B57EF0EF0B4
:101B7000112210C0DEFF11C0DDFF1200160E616ED3
:101B80000F019F0E5B6F7B0E606E1200DF50106EB8
:101B9000116A0C0E105C000E11581200F722090099
:101BA000F5CF75F00A00F5CF76F01200FE0EDBCF10
:101BB000E6FF98DEE552E5521200010EE66EE66A97
:101BC000000EE66EE66A1200D950020FE96EDACF17
:101BD000EAFFEF501200F76A7525F66E7651F7228C
:101BE000080012003251F66EF76AD890F636F736D2
:101BF000120065C0E9FF66C0EAFF1200040DF3CFD2
:101C000010F0F4CF11F0000E1026020EB1DF840E9A
:101C10006FEF0EF05FD8300EEE6E020EED6E12001A
:101C20003CDF020EE1261200020EE66EE66ADECF0F
:101C3000E6FFDDCFE6FF050E3FEF0DF017DF8C0E60
:101C4000EF6E26DF840EEF6E120030DF670EE9269E
:101C5000000E12002BDF6D0EE926000E12000ADFC7
:101C600091EF0DF0E66ECDEC12F0106E050EE15E18
:101C70001050120012DFE6521200FE0BEA36E96E37
:101C80006D0EE926000E1200FE0BEA36E96E670EB5
:101C9000E926000E12007EEC11F0106E060EE15ED9
:101CA00010501200EA6A8B0FE96E000E1200EA6A09
:101CB000880FE96E000E1200E6DEEF50800B120076
:101CC000E2DEE850EF16120094DFEE52080EEF6EDF
:101CD000F9EF0DF0020EE926000EEA221200D3DE23
:061CE000E850EF121200B3
:0A1CE600020130511F0B010801E05C
:101CF00012003051600BE842E842E842E842E84214
:101D0000010801E01200345103E0340501E0120043
:101D10003151220A31E0030A24E0010A15E0210AC8
:101D20000DE0010A01E012000001A50E756F000E22
:101D3000766F080E786F796B778121D00001A50E40
:101D4000756F000E766F1BD036C27DF037C27EF005
:101D50000001C80E7A6F020E7B6F7F6B806B7C8FE9
:101D600012000001C80E756F020E766F070E786FB5
:101D7000796BC10E776F120032C2A0F00001778F2D
:101D800012000201C86B4B0EC96FCA6BCB6BCC6BD8
:101D9000CD6B080ECE6F0001946B1A0EE66E010E2D
:101DA000E66E9FEC0CF0E552E5521E0EE66E020E5A
:101DB000E66E9FEC0CF0E552E55246D900019E6BB1
:101DC0009F6B956B12002BD90001946B9C519D1158
:101DD00002E1000E05D033D9EF50800B01E0010E77
:101DE00000092DE1FC0EDBCF10F029D9EE52EF50A7
:101DF000D880105405E223D9EE52FC0EEFCFDBFF62
:101E0000946BFC0EDB50945D19E29451EA6A480F22
:101E1000E96E020EEA22EF50E66E9451E76EFD0E77
:101E2000DBCFE9FFFE0EDBCFEAFFE750E926000E2D
:101E3000EA22E552E750EF6E942BE3D705D9000173
:101E40009451F2D0ECD8A0940001955107E1E0D86C
:101E5000FC0EDBCF9AF0010E9B6F956FA084E4D04F
:101E600008D917E1BAD8E4D802E111500BE0010E0D
:101E7000DBCFE9FFDB2A020EDBCFEAFF01E3DB2A3F
:101E8000EF50F1E1C5D8DFCF9AF00001010E9B6F52
:101E9000956FA084030EE15C02E2E16AE552E16E17
:101EA000C3D0E7D818E199D8C3D802E111500CE0AB
:101EB000010EDBCFF6FFDB2A020EDBCFF7FF01E3DB
:101EC000DB2A0800F550F0E1A3D8DFCF9AF000013B
:101ED0009B6B010E956FA084030EE15C02E2E16A48
:101EE000E552E16EA1D09BD8020EE126A09400013C
:101EF0009E519F1102E1000E08D09EC0E9FF9FC0D5
:101F0000EAFFEF50800B01E0010E000906E1030E2D
:101F1000955D01E1956B955102E1A0844ED0020ED2
:101F2000955D09E1E66A000EE66EE66A9AD8000160
:101F3000030E956F41D095053FE1400E106E116A7A
:101F40009A51105C000E115803E2400EDF6E02D071
:101F50009AC0DFFFDF509A5D9A6F880E986F020E6D
:101F6000996F010EDFCFDBFF9B510BE1010EDB50C0
:101F700012E096C0F6FF97C0F7FF0800F5503BD877
:101F8000F5D7010EDB5007E096C0E9FF97C0EAFFE6
:101F9000EF5031D8F6D700019A5107E1400EDF5CCF
:101FA00002E1020E01D0030E956FDFCFE6FF880E2F
:101FB000E66E020EE66E55D8A084020EE15C02E2E7
:101FC000E16AE552E16E30D0020EE66ECFEC0CF025
:101FD000106E050EE15E10501200DF6AFD0EDBCFC1
:101FE00008F0FE0EDBCF09F0DE5208C0DEFF09C0AC
:101FF000DDFFDD52120098C0E9FF99C0EAFFEF6EE5
:10200000982B000E9923962B9723010EDB061200C6
:10201000FD0EDBCF96F0FE0EDBCF97F01200D9CF8E
:10202000E6FFE1CFD9FF1200E552E7CFD9FF12005A
:10203000DF2ADF50106E116AFF0E101812009CC0CC
:10204000E9FF9DC0EAFF1200400EE66E480EE66E04
:10205000020EE66EE66AB8DFF3CF9CF0F4CF9DF097
:102060001200010EE66EB0DFF3CF9EF0F4CF9FF0CA
:102070001200D5DF030EE126A09400019551120055
:10208000DACFE4FFE2CFDAFFE9CFE4FFEACFE4FF03
:10209000F6CFE4FFF7CFE4FFF5CFE4FFF3CFE4FFA3
:1020A000F4CFE4FFFACFE4FF00EE00F0100EE804F6
:1020B00003E3EECFE4FFFBD700EE10F0060EE804DA
:1020C00003E3EECFE4FFFBD7E6526BEC08F0E552FA
:1020D00000EE15F0060EE80403E3E5CFEDFFFBD7B5
:1020E00000EE0FF0100EE80403E3E5CFEDFFFBD7A1
:1020F000E5CFFAFFE5CFF4FFE5CFF3FFE5CFF5FF3E
:10210000E5CFF7FFE5CFF6FFE5CFEAFFE5CFE9FF43
:10211000E5CFDAFF1100D8CFE4FFE0CFE4FFE46EB3
:10212000DACFE4FFE652E552E5CFDAFFE550E5CF3E
:10213000E0FFE5CFD8FF10000F0EC1120FEC08F042
:10214000BA6AC00EBB6E120EBC6E080E946E8F0E75
:102150006D6E1200F1DF080E946E400E826E7E6A84
:102160000101EA6B640EEA5D05E2EA510DD9EF6AFE
:10217000EA2BF8D7EA6B0001605102E124EC0DF084
:102180006BEC08F019D8000195510BE1860EE66E54
:10219000010EE66E30EC0FF0E552E5520101010E42
:1021A000806F73EC0FF0E7D7600EF4D03C0EF2D0E6
:1021B0000C0EF0D0060EEED00101826B836B846BA7
:1021C000856B826A8296A00E845D0F0E855919E296
:1021D000500ED8808455000E855502E2400E826E66
:1021E0008250080B08E0640ED8808455000E855597
:1021F00002E2829606D0DEDF0101842B000E8523E9
:10220000E2D784C113F085C114F0156A500E106E28
:10221000BD0E116E010E126E10C007F011C008F055
:10222000096E84C10CF085C10DF015C00EF083EC71
:1022300012F007C082F108C083F10101F00ED880CE
:102240000754000E085402E28269836B1E0E825D01
:10225000000E835903E2010E826F836BEA6BEA5131
:1022600093D8EF5005E05F0EEA5D02E2EA2BF7D764
:102270005F0EEA5D01E11200EA5186D8AA0EEF6E08
:10228000EA2982D8EF68020EEA257ED882C1EFFFE4
:10229000030EEA2579D8AA0EEF6E040EEA2574D84B
:1022A000EF6A120012001200120073EF0EF012001B
:1022B000C1EF0EF00001830520E1000184051DE15E
:1022C000A094F1DF64920001846B0101100EEB6FAA
:1022D0000E0EEC6FEB07000EEC5BEB51EC11FAE12C
:1022E0006484080EEB6F070EEC6FEB07000EEC5BDF
:1022F000EB51EC11FAE16494A0841200D9CFE6FF0F
:10230000E1CFD9FFFD0EDBCF08F0FE0EDBCF09F0E9
:10231000050E081801E1095032E0E868081802E1EA
:102320007F0E09182BE0030E081801E1095024E084
:10233000020E081801E109501DE0010E081801E124
:10234000095016E0740E081801E109500FE0750EEF
:10235000081801E1095008E0720E081810E1095050
:102360000EE10101866B0BD09DDF09D09CDF07D009
:102370009FDF05D09CDF03D098DF01D095DF010EF1
:10238000E552E7CFD9FF1200EA6A860FE96E010E27
:0E239000EA221200E66EE7EC12F0E5521200AF
:02239E0012012A
:1023A000000202000008D804AA0000010102000196
:1023B00009024300020100C03209040000010202C8
:1023C0000100052400100104240202052406000176
:1023D000052401000107058103080002090401002A
:1023E000020A000000070502024000000705820201
:1023F0004000000403090434035700430053002045
:10240000002D0020005400650063006E006F006C1A
:10241000006F00670069006100200020002000209C
:102420000020002000200020002E0034035700432D
:102430000053002000500075006C00730065002000
:10244000002D00200055005300420020005200657E
:10245000006300650069007600650072002000B02E
:0724600023F323F7232B24D3
:08246800060EF66E100EF76E71
:10247000000EF86E00010900F550B26F0900F5502A
:10248000B36F03E1B26701D03DD00900F550AD6FE5
:102490000900F550AE6F0900F550AF6F0900090053
:1024A000F550E96E0900F550EA6E090009000900CF
:1024B000F550B06F0900F550B16F09000900F6CF73
:1024C000B4F0F7CFB5F0F8CFB6F0ADC0F6FFAEC0C0
:1024D000F7FFAFC0F8FF0001B05302E1B15307E0CE
:1024E0000900F550EE6EB007F8E2B107F9D7B4C0B5
:1024F000F6FFB5C0F7FFB6C0F8FF0001B207000E47
:06250000B35BBFD712001F
:0A250600006A0EAE8EEF12F00C6CAE
:102510000D1E0E1EE86A0D220E22001E09AE98EF57
:1025200012F0076C081E091EE86A08220922001E24
:10253000B0EC12F009BEABEF12F000AE000C076C6D
:10254000081E091EE86A08220922036C041E051EE3
:1025500004220522000C00BE9FEF12F00188FF0C40
:10256000056A046A036A180EE76ED89007360836C3
:1025700009360336043605360C50035C0D500458FA
:102580000E50055807E30C50035E0D50045A0E50D0
:0A259000055A072AE72EEAD71200C9
:06259A00FE0EE3CFE9FF95
:1025A000FF0EE3CFEAFFE9CFF3FFEACFF4FFFB0E24
:1025B000E35003E1FC0EE35009E0FB0EE30602E208
:0E25C000FC0EE306FD0EE350EE6EF1D71200A6
:0225CE00FF0EFE
:1025D000E350166E480E01D04C0EE76EE72EFED784
:0E25E000E76AE72EFED7162EF7D7000012008E
:0225EE00000EDD
:1025F000F36E00EE00F0030E01D81200EA6002D084
:0E260000EE6AFCD7F350E9601200EE6AFCD7D8
:02260E0011EECB
:1026100000F021EE00F0F86A019C34EC12F007ECB7
:0A26200008F0AAEC10F0FBD712003E
:020000040030CA
:0100000000FF
:0100010032CC
:0100020001FC
:010003001EDE
:0100050000FA
:010006008178
:0100080003F4
:01000900C036
:01000A0003F2
:01000B00E014
:01000C0003F0
:01000D0040B2
:00000001FF
