:020000040000FA
:0600000049EF16F01200AA
:0600080004EF08F01200F5
:060018000CEF08F01200DD
:0610000049EF16F012009A
:021006000000E8
:0610080051EF13F012008D
:02100E001200CE
:061018009CEF13F0120032
:02101E00D9CF28
:10102000E6FFE1CFD9FFE652A0940F015F6B626A41
:10103000536B020EE66EE66AE66A540EE66E0F0E1B
:10104000E66E0FEC16F0106E050EE15E1050160EF7
:10105000616E0F019F0E5B6F7B0E606EDF6ADF506B
:10106000106E116A0C0E105C000E115810E2DF5069
:10107000040DF3CFE9FFF4CFEAFF000EE926020EDC
:10108000EA22EE6AEE6AEE6AEE6ADF2AE8D7648C3C
:101090000F015C6B6498649C62A607D062960001A5
:1010A000BB6BC06BC16BC26BF7D70001010ED46F75
:1010B000D56FD66BD76BC86BDF6A030EDF5C26E299
:1010C000EA6ADF34FE0BEA36E96EB10EE926000E5D
:1010D000EA22EE6AED6AEA6ADF34FE0BEA36E96E6E
:1010E000AB0EE926000EEA22EE6AED6ADF50EA6AEC
:1010F000CC0FE96E000EEA22EF6ADF50EA6ACF0FEA
:10110000E96E000EEA22EF6ADF2AD7D70001080E47
:10111000B16F020EB26F0F01160E536F0201300E47
:10112000026F020E036F080E016F840E006F000144
:10113000A56BA46BE552E552E7CFD9FF1200D9CFDA
:10114000E6FFE1CFD9FFE6520001A40507E164BA4A
:1011500005D0626A60806088020EA46F6250040B42
:1011600005E06050040B02E06294C8D864B258D025
:101170006250010B09E06050010B06E050DFA084D3
:101180000001040EA46F62906250100B05E06050E5
:10119000100B02E09ED8629862AC19D060AC0FD000
:1011A000010EE66EE66A000EE66EE66A730EE66E05
:1011B000E66ACEEC14F0106E060EE15E1050629CF2
:1011C0000001D25101E0D207D25101E14DDB625062
:1011D000200B04E06050200B01E061D86250020B4C
:1011E00014E06050020B11E0010EE66EE66A000E9C
:1011F000E66EE66AE6687F0EE66ECEEC14F0106EE0
:10120000060EE15E10500F015F6B040E0001E76EE9
:10121000A419E8AE02D0E73402D0E750A45D02E2A0
:10122000A19438D060A635D0DF6A040EDF5C31E2CD
:1012300062A62FD063CFC9F00001C951780BE842F4
:10124000E842E842CA6F6296C9B506D0CA51EA6A56
:10125000CF0FE96E000E05D0CA51EA6ACC0FE96ED5
:10126000000EEA22EF70CA5102E15FD810D0000EE2
:10127000E66EE66AC90EE66E000EE66E720EE66E69
:10128000E66ACEEC14F0106E060EE15E1050DF2A16
:10129000CCD7A194E552E552E7CFD9FF12000F0158
:1012A00053A115D0A7C0E9FFA8C0EAFFEF508008FE
:1012B0000DE1B1C0E9FFB2C0EAFFEF50840806E1DA
:1012C000A7C0E9FFA8C0EAFF8C0EEF6E5391629AA7
:1012D00012006084629864820001010EC86F000EE3
:1012E000E66EE66AE66EE66A750EE66EE66ACEECD5
:1012F00014F0106E060EE15E105012000001C86B73
:10130000000EE66EE66AE66EE66A740EE66EE66A61
:10131000CEEC14F0106E060EE15E105064926094F4
:1013200062A402D06294FCD71200D9CFE6FFE1CFCD
:10133000D9FFE65200012D0ED26FFD0EC91553E103
:101340007E0EC915E8407F0B040DF3CFA7F0F4CF54
:10135000A8F0000EA727020EA823A7C0A9F0A8C0D6
:10136000AAF0A975A7C0E9FFA8C0EAFFEF503C0B9F
:10137000E842E8420D0835E1DF6A080EDF5C23E24F
:10138000A7C0E9FFA8C0EAFF020EE926000EEA2284
:10139000EE50EFCFEAFFE96EEF50E66EDF50EA6AFB
:1013A000300FE96E020EEA22E552E750EF6EA7C059
:1013B000E9FFA8C0EAFF020EE926000EEA22EE2AA3
:1013C000EF22DF2ADAD7A7C0E9FFA8C0EAFF020EA2
:1013D000E926000EEA22300EEE6E020EED6E0DD8FA
:1013E00007D03AD805D0FD0EC915040801E159D837
:1013F000E552E552E7CFD9FF12000001B76BD36B7E
:10140000D66BD76BCB6BB86BB1C0E9FFB2C0EAFF4C
:10141000EF9EB175B1C0E9FFB2C0EAFFEF9EB175B2
:10142000A9C0E9FFAAC0EAFFEF9EBB6BBC6BBD6B16
:10143000C06BC16BC26B8FD8000EE66EE66AE66EBB
:10144000E66A030EE66EE66ACEEC14F0106E060E47
:10145000E15E10507AEF0DF0020E0001B85D02E17E
:101460003AEF0EF0B86BCB511AE1A9C0E9FFAAC060
:10147000EAFFEE52080EEF6EA9C0E9FFAAC0EAFF2C
:10148000020EE926000EEA22300EEE6E020EED6E1E
:10149000A9C0E9FFAAC0EAFF8C0EEF6E1200CB6B69
:1014A0001200D9CFE6FFE1CFD9FFE652B1C0E9FF84
:1014B000B2C0EAFFEF50400B01E0010EDF6E000109
:1014C000B175080EA45D0BE132C25CFF0F015C51E7
:1014D00003E00001100E02D00001040EA46FB80555
:1014E00026E1B1C0E9FFB2C0EAFF020EE926000E14
:1014F000EA22380EEE6E020EED6E5DDB020E00018A
:10150000B75D06E1B1C0E9FFB2C0EAFF840E0DD0BD
:10151000DF5006E1B1C0E9FFB2C0EAFFC80E05D056
:10152000B1C0E9FFB2C0EAFF880EEF6E0FD0C0AFC6
:101530000CD0C351C41107E005D0C4C0FAFF0001AC
:10154000C351F96EFADF0001C09FB86BE552E55256
:10155000E7CFD9FF120002013051600BE842E842A8
:10156000E842E842E842000901E0120031510C0A69
:1015700050E00B0A3FE00C0A31E0010A22E00B0ABE
:101580001EE0020A1CE0030A18E0080A10E0010A43
:101590000CE00F0A08E0030A01E012000001BB8F13
:1015A000080EA46F1200C3EF0CF0D9EF0EF000018B
:1015B000A50EB96F000EBA6F0CD020EF0DF00AEF38
:1015C0000BF034510001B96FBA6BA60EB927000EAB
:1015D000BA23BB81010EBC6FBB8F12000001BB8F11
:1015E00002013451EA6AA60FE96E000EEA2232C205
:1015F000EFFF1200000EE66EE66AE66EE66A020E85
:10160000E66EE66ACEEC14F0106E060EE15E105047
:1016100012001200D9CFE6FFE1CFD9FF030EE12679
:101620000201320510E130511F0B00090CE10001ED
:10163000BB8F030E0201315D04E10001010EC76F93
:1016400002D00001C76B0201325101E003D13051D9
:101650001F0B020801E0FED034510F0B000901E11D
:10166000F9D034510F0B020801E2F4D0200E000132
:10167000A45D01E0EFD0BB8F020134BF16D034511E
:101680000F0BE96EEA6AD890E936EA36AB0EE92626
:10169000000EEA22EECFDEFFEDCFDDFF34510F0B5F
:1016A000EA6ACF0FE96E000E15D034510F0BE96EC8
:1016B000EA6AD890E936EA36B10EE926000EEA2247
:1016C000EECFDEFFEDCFDDFF34510F0BEA6ACC0F1A
:1016D000E96E000EEA22020EEFCFDBFFD950020FB7
:1016E000E96EDACFEAFFEF50010B03E1000EDF9461
:1016F00001D0DF8434BF0BD034510F0BE96EEA6A9E
:10170000D890E936EA36AB0EE926000E0AD03451FD
:101710000F0BE96EEA6AD890E936EA36B10EE9268F
:10172000000EEA22DECFEEFFDDCFEDFF030E315DCE
:1017300020E1DECFE9FFDDCFEAFFEF50800B11E0C3
:1017400034BF07D034510F0BEA6ACF0FE96E000E99
:1017500006D034510F0BEA6ACC0FE96E000EEA2274
:10176000EF82840EDECFE9FFDDCFEAFFE850EF1213
:1017700071D0DF74DECFE9FFDDCFEAFFEF50800BE1
:101780001BE0DECFE9FFDDCFEAFFEF9EDECFE9FF12
:10179000DDCFEAFFEF8C020EE66EE66ADECFE6FFF3
:1017A000DDCFE6FF050EE66EE66ACEEC14F0106EB5
:1017B000060EE15E105005D0DECFE9FFDDCFEAFF77
:1017C000EF8CDF74D950020FE96EDACFEAFFEF50E9
:1017D000020B0EE1DECFE9FFDDCFEAFFEF50800B19
:1017E00032E0DECFE9FFDDCFEAFFEF50040B2BE163
:1017F000020134BF07D034510F0BEA6ACF0FE96EF4
:10180000000E06D034510F0BEA6ACC0FE96E000EC1
:10181000EA22EF923B0E106EDECFE9FFDDCFEAFF4A
:10182000E850EF16020EE66EE66ADECFE6FFDDCF89
:10183000E6FF050EE66EE66ACEEC14F0106E060EBC
:10184000E15E105007D03B0EDECFE9FFDDCFEAFFAF
:10185000E850EF16030EE15C02E2E16AE552E16E48
:10186000E552E7CFD9FF12000001D4514DE1010E3E
:10187000D46FD55149E1010ED56F020EB85D0DE16F
:10188000B1C0E9FFB2C0EAFFEE52EF6AB1C0E9FFB2
:10189000B2C0EAFFC80EEF6E1200B80535E1CB6B9F
:1018A000A7C0E9FFA8C0EAFFEE52080EEF6EA7C07E
:1018B000E9FFA8C0EAFF020EE926000EEA22300E78
:1018C000EE6E020EED6EA7C0E9FFA8C0EAFF840E1F
:1018D000EF6E010ECB6FA9C0E9FFAAC0EAFFEE527E
:1018E000080EEF6EA9C0E9FFAAC0EAFF020EE926C2
:1018F000000EEA22300EEE6E020EED6EA9C0E9FF78
:10190000AAC0EAFF800EEF6E12000001D66BD76B03
:10191000020EB85D18E1A9C0E9FFAAC0EAFFEE52C5
:10192000080EEF6EA9C0E9FFAAC0EAFF020EE92681
:10193000000EEA22380EEE6E020EED6EA9C0E9FF2F
:10194000AAC0EAFF1DD0BC510201365D0001BD51A5
:101950000201375904E236C2BCF037C2BDF02BD9C0
:10196000B1C0E9FFB2C0EAFF020EE926000EEA228A
:10197000380EEE6E020EED6EB1C0E9FFB2C0EAFFA6
:10198000C80EEF6E1200800E0201305D58E10001BA
:10199000C00EBB6F02013351030A2FE0010A09E0B8
:1019A000030A4BE10001220EB96F2A0EBA6F120E24
:1019B0003ED03251F66EF76AD890F636F736E30E1F
:1019C000F6262A0EF7220900F5CFB9F00A00F5CF66
:1019D000BAF0020E0001F76AB925F66EBA51F72285
:1019E0000800F5CFBCF0030EF76AB925F66EBA51C0
:1019F000F7220800F5CFBDF01200030E325D1AE2A7
:101A00003251F66EF76AD890F636F736E50EF626BE
:101A10002A0EF7220900F5CFB9F00A00F5CFBAF087
:101A2000B9C0F6FFBAC0F7FF0800F5500001BC6F5F
:101A3000BD6B12000001BB6B12000001BB6B1200FA
:101A4000D9CFE6FFE1CFD9FF020EE1260201386BC4
:101A5000396B30511F0B020A11E0030A0CE0010A36
:101A600035E10001BB8F020138810001C7052EE17D
:101A7000020138832BD00001BB8F28D00001BB8F1F
:101A8000020134BF0BD034510F0BE96EEA6AD890D3
:101A9000E936EA36AB0EE926000E0AD034510F0BB8
:101AA000E96EEA6AD890E936EA36B10EE926000E08
:101AB000EA22EECFDEFFEDCFDDFFDECFE9FFDDCFA7
:101AC000EAFFEF50040B02E0010E386F0001BBAFDC
:101AD00007D0380EB96F020EBA6FBB81020EBC6F11
:101AE000020EE15C02E2E16AE552E16EE552E7CF07
:101AF000D9FF120064980001BBBF2BD0C0AF09D042
:101B0000020EB86FD75101E100DF0001D56BD46B35
:101B10001200A9C0E9FFAAC0EAFFEE52080EEF6E5C
:101B2000A9C0E9FFAAC0EAFF020EE926000EEA22D8
:101B3000300EEE6E020EED6EA9C0E9FFAAC0EAFFFC
:101B40008C0EEF6EB1C0E9FFB2C0EAFF840EEF6EFB
:101B50001200020130AF0DD00001010EB86FD65156
:101B600001E1D3DE0001D56BD46BD35123E134EF17
:101B70000CF00001020EB86FA9C0E9FFAAC0EAFF8D
:101B8000EE52080EEF6EA9C0E9FFAAC0EAFF020EEE
:101B9000E926000EEA22300EEE6E020EED6EA9C0AE
:101BA000E9FFAAC0EAFF840EEF6ED56BD46BD35168
:101BB00001E15ADE1200D9CFE6FFE1CFD9FFE652AC
:101BC000080EDF6E0001BC5D000EBD590AE2BCC00C
:101BD000DFFFB75102E1010E03D0B70502E1020EAB
:101BE000B76FDF50116AE850BC5DBC6F1150BD5932
:101BF000BD6FB1C0E9FFB2C0EAFFEE52DFCFEFFF29
:101C0000380EC56F020EC66FBBB118D0DF502DE085
:101C1000B9C0F6FFBAC0F7FFB92B000EBA2308000F
:101C2000F550E66EC5C0E9FFC6C0EAFFC52B000E41
:101C3000C623E552E750EF6EDF06E8D7DF5015E028
:101C4000B9C0E9FFBAC0EAFFB92B000EBA23EF50C2
:101C5000E66EC5C0E9FFC6C0EAFFC52B000EC6236D
:101C6000E552E750EF6EDF06E9D7E552E552E7CFE0
:101C7000D9FF1200D9CFE6FFE1CFD9FF020EE1264E
:101C8000A7C0E9FFA8C0EAFFEE52EFCFDFFFDFCF2A
:101C900010F010500001C15D000EC25902E2C1C037
:101CA000DFFFDF50106E116AE850C15DC16F115047
:101CB000C259C26F010EDB6ADF50F36E010EDBCF3B
:101CC000F4FFF350F45C16E2010EDB50EA6A380FC1
:101CD000E96E020EEA22EF50E66EBEC0E9FFBFC019
:101CE000EAFFBE2B000EBF23E552E750EF6E010E58
:101CF000DB2AE2D7000ED880C155000EC25527E27C
:101D0000A9C0E9FFAAC0EAFFEE52080EEF6EA9C013
:101D1000E9FFAAC0EAFF020EE926000EEA22380E09
:101D2000EE6E020EED6EA7C0E9FFA8C0EAFFEF500D
:101D3000400B06E1A9C0E9FFAAC0EAFFC80E05D022
:101D4000A9C0E9FFAAC0EAFF880EEF6E28D0A9C09B
:101D5000E9FFAAC0EAFFEE52080EEF6EA9C0E9FF44
:101D6000AAC0EAFF020EE926000EEA22300EEE6E4D
:101D7000020EED6EA9C0E9FFAAC0EAFF840EEF6E65
:101D8000C351C41107E005D0C4C0FAFF0001C3511C
:101D9000F96EFADF0001C09FD35101E165DD020E4B
:101DA000E15C02E2E16AE552E16EE552E7CFD9FF7C
:101DB0001200D9CFE6FFE1CFD9FFE6520001BB8F79
:101DC000020EE66EE66AE66A540EE66E0F0EE66EE8
:101DD0000FEC16F0106E050EE15E1050DF6ADF505A
:101DE000106E116A0C0E105C000E115810E2DF50DC
:101DF000040DF3CFE9FFF4CFEAFF000EE926020E4F
:101E0000EA22EE6AEE6AEE6AEE6ADF2AE8D7648CAE
:101E1000010EE66EE66AE66AA60EE66E000EE66E55
:101E20000FEC16F0106E050EE15E1050649C000180
:101E3000080EB16F020EB26F000EA76F020EA86FF0
:101E4000A7C0A9F0AA6F32C2A5F0A55102E1100EF9
:101E500012D0010EE66EE66AA50EE66E000EE66E84
:101E6000010EE66EE66ACEEC14F0106E060EE15E30
:101E700010500001200EA46FE552E552E7CFD9FFC4
:101E80001200D9CFE6FFE1CFD9FF020EE126000E06
:101E9000DE6E020EDD6EFD0EDB50E824126EFE0ECD
:101EA000DB50040DF3501224040DF4CF11F0D9CF00
:101EB000E9FFDACFEAFFF350EE261150ED22DECF34
:101EC000E9FFDDCFEAFFEF9EFD0EDB500AE1FE0EDB
:101ED000EA6ADB34FE0BEA36E96EAB0EE926000E49
:101EE00009D0FE0EEA6ADB34FE0BEA36E96EB10E6B
:101EF000E926000EEA22DECFEEFFDDCFEDFFDECFDA
:101F0000E9FFDDCFEAFFEF9CDECFE9FFDDCFEAFF9F
:101F1000040EE926000EEA22EF8C020EE15C02E2DA
:101F2000E16AE552E16EE552E7CFD9FF1200D9CF61
:101F3000E6FFE1CFD9FF020EE126FD0EDBA407D0BC
:101F4000E66AFE0EDBCFE6FF9CDFE552E552FD0EB2
:101F5000DBA208D0010EE66EFE0EDBCFE6FF91DFBE
:101F6000E552E552FE0EDB50116A530F106E0F0E54
:101F7000112210C0DEFF11C0DDFFDECFE9FFDDCF93
:101F8000EAFFFD0EDBCFEFFF020EE15C02E2E16A49
:101F9000E552E16EE552E7CFD9FF1200D9CFE6FF57
:101FA000E1CFD9FF020EE126FE0EDB5020E1A9C0F1
:101FB000E9FFAAC0EAFFEE52080EEF6EA9C0E9FFE2
:101FC000AAC0EAFF020EE926000EEA22300EEE6EEB
:101FD000020EED6EA9C0E9FFAAC0EAFF8C0EEF6EFB
:101FE000B1C0E9FFB2C0EAFF840EEF6E3BD0FD0E38
:101FF000DB50E824126EFE0EDB50040DF350122469
:10200000040DF3CF10F0F4CF11F0000E1026020EE5
:10201000112210C0DEFF11C0DDFF840EDECFE9FF0C
:10202000DDCFEAFFE850EF12FD0EDB50E824126E20
:10203000FE0EDB50040DF3501224010F040DF3CFFC
:1020400010F0F4CF11F0000E1026020E112210C075
:10205000DEFF11C0DDFF840EDECFE9FFDDCFEAFF3A
:10206000E850EF12020EE15C02E2E16AE552E16E35
:10207000E552E7CFD9FF1200D9CFE6FFE1CFD9FF74
:10208000020EE126FD0EDB500AE0FE0EEA6ADB34AA
:10209000FE0BEA36E96EB10EE926000E09D0FE0EFF
:1020A000EA6ADB34FE0BEA36E96EAB0EE926000E77
:1020B000EA22EECFDEFFEDCFDDFFD9CFE9FFDACFA9
:1020C000EAFFEE50ED1003E1F36AF46A44D0DECF8C
:1020D000E9FFDDCFEAFF020EE926000EEA22FB0E41
:1020E000DBCFEEFFFC0EDBCFEDFFDECFE9FFDDCF78
:1020F000EAFFEE52FA0EDBCFEFFF400EDECFE9FF34
:10210000DDCFEAFFE850EF16880EDECFE9FFDDCF26
:10211000EAFFE850EF12FD0EDB500AE0FE0EEA6A1D
:10212000DB34FE0BEA36E96EB10EE926000E09D06B
:10213000FE0EEA6ADB34FE0BEA36E96EAB0EE926E8
:10214000000EEA22EF74DECF10F0DDCF11F010C0E8
:10215000F3FF11C0F4FF020EE15C02E2E16AE55216
:10216000E16EE552E7CFD9FF1200D9CFE6FFE1CF0C
:10217000D9FF64A84ED0FE0EEA6ADB34FE0BEA36C5
:10218000E96EB10EE926000EEA22EE50EFCFEAFF2B
:10219000E96E400EEE16EE6AEE6AEE6AFE0EEA6A2E
:1021A000DB34FE0BEA36E96EB10EE926000EEA22B8
:1021B000EE50EFCFEAFFE96EEE7CFE0EEA6ADB340A
:1021C000FE0BEA36E96EB10EE926000EEA22EF7444
:1021D000400E106EFE0EEA6ADB34FE0BEA36E96E44
:1021E000B10EE926000EEA22EE50EFCFEAFFE96ECB
:1021F0001050EF16FE0EEA6ADB34FE0BEA36E96E8B
:10220000B10EE926000EEA22EE50EFCFEAFFE96EAA
:10221000EF7CE552E7CFD9FF1200646A606A0001E3
:10222000A46B12000001A45114E1646A606A160EE6
:10223000616E0F019F0E5B6F7B0E606ED08EA2846D
:10224000A084F28E64B602D06486FCD70001010E31
:04225000A46F120065
:0C225400020130511F0B010801E01200D4
:102260003051600BE842E842E842E842E8420108A7
:1022700001E01200345103E0340501E01200315155
:10228000220A31E0030A24E0010A15E0210A0DE0E8
:10229000010A01E012000001E90EB96F000EBA6FE9
:1022A000080EBC6FBD6BBB8121D00001E90EB96F78
:1022B000000EBA6F1BD036C2C1F037C2C2F00001A7
:1022C000C80EBE6F020EBF6FC36BC46BC08F12000F
:1022D0000001C80EB96F020EBA6F070EBC6FBD6B5E
:1022E000C10EBB6F120032C2E4F00001BB8F1200BE
:1022F0000201C86B4B0EC96FCA6BCB6BCC6BCD6B3D
:10230000080ECE6F0001D86B1A0EE66E010EE66E57
:1023100097EC0FF0E552E5521E0EE66E020EE66EE9
:1023200097EC0FF0E552E552400EE66E480EE66E71
:10233000020EE66EE66A020EE66E3CEC10F0106EDF
:10234000050EE15E1050F3CFE0F0F4CFE1F00001B4
:10235000E26BE36BD96B1200D9CFE6FFE1CFD9FF77
:102360000001D86BE051E11102E1000E08D0E0C09D
:10237000E9FFE1C0EAFFEF50800B01E0010E000928
:1023800045E1FC0EDBCF10F0E0C0E9FFE1C0EAFF61
:10239000EE52EF50D880105408E2E0C0E9FFE1C0EF
:1023A000EAFFEE52FC0EEFCFDBFFD86BFC0EDB50EA
:1023B000D85D19E2D851EA6A480FE96E020EEA22A6
:1023C000EF50E66ED851E76EFD0EDBCFE9FFFE0E53
:1023D000DBCFEAFFE750E926000EEA22E552E7509C
:1023E000EF6ED82BE3D7400EE66E480EE66E020E77
:1023F000E66EE66A020EE66E3CEC10F0106E050E1C
:10240000E15E1050F3CFE0F0F4CFE1F00001D851DD
:10241000E552E7CFD9FF1200D9CFE6FFE1CFD9FFD0
:10242000A0940001D9510CE1FD0EDBCFDAF0FE0ED5
:10243000DBCFDBF0FC0EDBCFDEF0010EDF6FD96F00
:10244000A084E552E7CFD9FF1200D9CFE6FFE1CF54
:10245000D9FF030EE126A0940001D9512DE1DF6AD6
:10246000FD0EDBCF08F0FE0EDBCF09F0DE5208C018
:10247000DEFF09C0DDFFDD52DF2ADF50106E116A7A
:10248000FF0E101802E111500BE0010EDBCFE9FF47
:10249000DB2A020EDBCFEAFF01E3DB2AEF50ECE19F
:1024A000FD0EDBCFDAF0FE0EDBCFDBF0DFCFDEF0B0
:1024B0000001010EDF6FD96FA084030EE15C02E220
:1024C000E16AE552E16EE552E7CFD9FF1200D9CFBC
:1024D000E6FFE1CFD9FF030EE126A0940001D95118
:1024E0002EE1DF6AFD0EDBCF08F0FE0EDBCF09F038
:1024F000DE5208C0DEFF09C0DDFFDD52DF2ADF50FB
:10250000106E116AFF0E101802E111500CE0010E5E
:10251000DBCFF6FFDB2A020EDBCFF7FF01E3DB2A7E
:102520000800F550EBE1FD0EDBCFDAF0FE0EDBCF5D
:10253000DBF0DFCFDEF00001DF6B010ED96FA0848E
:10254000030EE15C02E2E16AE552E16EE552E7CF9B
:10255000D9FF1200D9CFE6FFE1CFD9FF020EE12665
:10256000A0940001E251E31102E1000E08D0E2C0A4
:10257000E9FFE3C0EAFFEF50800B01E0010E000924
:1025800006E1030ED95D01E1D96BD95102E1A084C6
:102590007ED0020ED95D16E1E66A000EE66EE66AAE
:1025A000010EE66E020EE66E3CEC10F0106E050EAB
:1025B000E15E1050F3CFE2F0F4CFE3F00001030E40
:1025C000D96F64D0D90562E1400E106E116ADE51F8
:1025D000105C000E115803E2400EDF6E02D0DEC028
:1025E000DFFFDF50DE5DDE6F880EDC6F020EDD6F19
:1025F000010EDFCFDBFFDF5116E1010EDB5028E0DB
:10260000DAC0F6FFDBC0F7FF0800F550DCC0E9FFD9
:10261000DDC0EAFFEF6EDC2B000EDD23DA2BDB23BF
:10262000010EDB06EAD7010EDB5012E0DAC0E9FF4B
:10263000DBC0EAFFEF50DCC0E9FFDDC0EAFFEF6E70
:10264000DC2B000EDD23DA2BDB23010EDB06EBD7C0
:102650000001DE5107E1400EDF5C02E1020E01D015
:10266000030ED96FDFCFE6FF880EE66E020EE66E30
:10267000010EE66E020EE66E3CEC10F0106E050EDA
:10268000E15E1050F3CFE2F0F4CFE3F0A084020E4D
:10269000E15C02E2E16AE552E16EE552E7CFD9FF83
:0226A000120026
:0E26A200DACFE4FFE2CFDAFFE9CFE4FFEACFC0
:1026B000E4FFF6CFE4FFF7CFE4FFF5CFE4FFF3CF7D
:1026C000E4FFF4CFE4FFFACFE4FF00EE00F0100ED9
:1026D000E80403E3EECFE4FFFBD700EE10F0060EB4
:1026E000E80403E3EECFE4FFFBD7E6529FEC08F0EB
:1026F000E55200EE15F0060EE80403E3E5CFEDFF2A
:10270000FBD700EE0FF0100EE80403E3E5CFEDFF7A
:10271000FBD7E5CFFAFFE5CFF4FFE5CFF3FFE5CF39
:10272000F5FFE5CFF7FFE5CFF6FFE5CFEAFFE5CF11
:10273000E9FFE5CFDAFF1100D8CFE4FFE0CFE4FFF7
:10274000E46EDACFE4FFE652E552E5CFDAFFE5507A
:10275000E5CFE0FFE5CFD8FF100007D80001A45176
:1027600002E112EC11F021D8F9D70F0EC1120FECD3
:1027700008F0BA6AC00EBB6E120EBC6E080E946EE4
:102780008F0E6D6E1200600EE66E29EC16F0E552AB
:1027900012003C0EE66E29EC16F0E55212000C0E0B
:1027A000E66E29EC16F0E5521200D9CFE6FFE1CF34
:1027B000D9FF0C0EE126DE6ADD6A020EDB6A030E2B
:1027C000DB6A0A0EDB6A0B0EDB6A080E946E400EA3
:1027D000826E7E6A82A657D0826A020EDBCF10F02C
:1027E000030EDBCF11F0DC0E105C050E11584BE22E
:1027F0008250080B0FE1D9500A0FE96EDACFEAFFD9
:10280000EE50ED1007E1010EF36E0A0EF3CFDBFF81
:102810000B0EDB6AD9500A0FE96EDACFEAFF010E20
:10282000EE180FE1ED500DE1D950020FE96EDACF4D
:10283000EAFF640ED880EE54000EED5402E2400E22
:10284000826ED9500A0FE96EDACFEAFFEE50ED1032
:1028500013E08250080B10E0D950020FE96EDACF76
:10286000EAFF960ED880EE54000EED5405E20A0EF3
:10287000DB6A0B0EDB6A07D092DF020EDB2A030E47
:10288000ACE3DB2AAAD7020EDBCF13F0030EDBCFBB
:1028900014F0156A9C0E106EE00E116E126A10C0D4
:1028A00007F0086E12C009F013C00CF014C00DF050
:1028B00015C00EF0C5EC15F007C0DEFF08C0DDFF47
:1028C000D9CFE9FFDACFEAFFF00ED880EE54000E40
:1028D000ED5402E2DE68DD6ADECF10F0DDCF11F0EC
:1028E000280E105C000E115802E2DE6ADD6A00015B
:1028F000D9511CE1AA0EF36E040EF3CFDBFF050ED7
:10290000DB68060EDFCFDBFFAA0EF36E070EF3CFF8
:10291000DBFFD950040FE66E000EDA20E66E25ECE0
:1029200012F0E552E5520001010EA06FAAEC12F080
:102930000C0EE15C02E2E16AE552E16EE552E7CF9E
:10294000D9FF12001200120012002AEF11F012003B
:1029500078EF11F00001C70520E10001C8051DE175
:10296000A094F1DF64920001C86B0001100EA26F09
:102970000E0EA36FA207000EA35BA251A311FAE1F2
:102980006484080EA26F070EA36FA207000EA35B5C
:10299000A251A311FAE16494A0841200D9CFE6FFFA
:1029A000E1CFD9FFFD0EDBCF08F0FE0EDBCF09F043
:1029B000050E081801E109502FE0E868081802E147
:1029C0007F0E091828E0030E081801E1095021E0E4
:1029D000020E081801E109501AE0010E081801E181
:1029E000095013E0740E081801E109500CE0750E4F
:1029F000081801E1095005E0720E08180DE10950B0
:102A00000BD0A0DF09D09FDF07D0A2DF05D09FDF6A
:102A100003D09BDF01D098DF010EE552E7CFD9FF4D
:022A20001200A2
:0E2A22001201000202000008D804AA00000100
:102A30000102000109024300020100C03209040042
:102A40000001020201000524001001042402020515
:102A50002406000105240100010705810308000286
:102A600009040100020A00000007050202400000FC
:102A700007058202400000040309043403570043A1
:102A800000530020002D0020005400650063006EFC
:102A9000006F006C006F006700690061002000207B
:102AA000002000200020002000200020002E003404
:102AB000035700430053002000500075006C007362
:102AC00000650020002D002000550053004200202A
:102AD00000520065006300650069007600650072C1
:0B2AE000002000342A772A7B2AAF2A4E
:042AEC00060EF66E6E
:102AF000100EF76E000EF86E00010900F550F66F2B
:102B00000900F550F76F03E1F66701D03DD00900E9
:102B1000F550F16F0900F550F26F0900F550F36FB1
:102B200009000900F550E96E0900F550EA6E090048
:102B300009000900F550F46F0900F550F56F090020
:102B40000900F6CFF8F0F7CFF9F0F8CFFAF0F1C0BE
:102B5000F6FFF2C0F7FFF3C0F8FF0001F45302E103
:102B6000F55307E00900F550EE6EF407F8E2F507BB
:102B7000F9D7F8C0F6FFF9C0F7FFFAC0F8FF000177
:0A2B8000F607000EF75BBFD7120046
:062B8A00006A0EAED0EF60
:102B900015F00C6C0D1E0E1EE86A0D220E22001E92
:102BA00009AEDAEF15F0076C081E091EE86A082264
:102BB0000922001EF2EC15F009BEEDEF15F000AE93
:102BC000000C076C081E091EE86A08220922036C23
:102BD000041E051E04220522000C00BEE1EF15F0C4
:042BE0000188FF0C5D
:0C2BE400056A046A036A180EE76ED890B8
:102BF0000736083609360336043605360C50035CB2
:102C00000D5004580E50055807E30C50035E0D504C
:0E2C1000045A0E50055A072AE72EEAD7120082
:022C1E00FE0EA8
:102C2000E3CFE9FFFF0EE3CFEAFFE9CFF3FFEACFFF
:102C3000F4FFFB0EE35003E1FC0EE35009E0FB0E52
:102C4000E30602E2FC0EE306FD0EE350EE6EF1D762
:022C5000120070
:0E2C5200FF0EE350166E480E01D04C0EE76EDA
:102C6000E72EFED7E76AE72EFED7162EF7D700002D
:022C7000120050
:0E2C7200000EF36E00EE00F0030E01D812000B
:102C8000EA6002D0EE6AFCD7F350E9601200EE6A07
:022C9000FCD76F
:0E2C920011EE00F021EE00F0F86A019C76ECE5
:0E2CA00015F007EC08F0ADEC13F0FBD71200B6
:020000040030CA
:0100000000FF
:0100010032CC
:0100020021DC
:010003001EDE
:0100050000FA
:010006008178
:0100080003F4
:01000900C036
:01000A0003F2
:01000B00E014
:01000C0003F0
:01000D0040B2
:00000001FF
