:020000040000FA
:0600000095EF1DF0120057
:0600080004EF08F01200F5
:060018000CEF08F01200DD
:0610000095EF1DF0120047
:021006000000E8
:0610080062EF19F0120076
:02100E001200CE
:021010001200CC
:06101800ADEF19F012001B
:02101E00D9CF28
:10102000E6FFE1CFD9FFE652A0940F015F6B626A41
:10103000536B020EE66EE66AE66A540EE66E0F0E1B
:10104000E66E5BEC1CF0146E050EE15E1450160E9D
:10105000616E0F019F0E5B6F7B0E606EDF6ADF506B
:10106000146E156A0C0E145C000E155810E2DF5059
:10107000040DF3CFE9FFF4CFEAFF000EE926020EDC
:10108000EA22EE6AEE6AEE6AEE6ADF2AE8D7648C3C
:101090000F015C6B6498649C62A607D062960001A5
:1010A000BB6BC06BC16BC26BF7D70001010ED46F75
:1010B000D56FD66BD76BC86BDF6A030EDF5C26E299
:1010C000EA6ADF34FE0BEA36E96EB10EE926000E5D
:1010D000EA22EE6AED6AEA6ADF34FE0BEA36E96E6E
:1010E000AB0EE926000EEA22EE6AED6ADF50EA6AEC
:1010F000CC0FE96E000EEA22EF6ADF50EA6ACF0FEA
:10110000E96E000EEA22EF6ADF2AD7D70001080E47
:10111000B16F020EB26F0F01160E536F0201300E47
:10112000026F020E036F080E016F840E006F000144
:10113000A56BA46BE552E552E7CFD9FF1200D9CFDA
:10114000E6FFE1CFD9FFE6520001A40507E164BA4A
:1011500005D0626A60806088020EA46F6250040B42
:1011600005E06050040B02E06294C8D864B258D025
:101170006250010B09E06050010B06E050DFA084D3
:101180000001040EA46F62906250100B05E06050E5
:10119000100B02E09ED8629862AC19D060AC0FD000
:1011A000010EE66EE66A000EE66EE66A730EE66E05
:1011B000E66AB4EC1AF0146E060EE15E1450629CFE
:1011C0000001D25101E0D207D25101E14DDB625062
:1011D000200B04E06050200B01E061D86250020B4C
:1011E00014E06050020B11E0010EE66EE66A000E9C
:1011F000E66EE66AE6687F0EE66EB4EC1AF0146EF0
:10120000060EE15E14500F015F6B040E0001E76EE5
:10121000A419E8AE02D0E73402D0E750A45D02E2A0
:10122000A19438D060A635D0DF6A040EDF5C31E2CD
:1012300062A62FD063CFC9F00001C951780BE842F4
:10124000E842E842CA6F6296C9B506D0CA51EA6A56
:10125000CF0FE96E000E05D0CA51EA6ACC0FE96ED5
:10126000000EEA22EF70CA5102E15FD810D0000EE2
:10127000E66EE66AC90EE66E000EE66E720EE66E69
:10128000E66AB4EC1AF0146E060EE15E1450DF2A22
:10129000CCD7A194E552E552E7CFD9FF12000F0158
:1012A00053A115D0A7C0E9FFA8C0EAFFEF508008FE
:1012B0000DE1B1C0E9FFB2C0EAFFEF50840806E1DA
:1012C000A7C0E9FFA8C0EAFF8C0EEF6E5391629AA7
:1012D00012006084629864820001010EC86F000EE3
:1012E000E66EE66AE66EE66A750EE66EE66AB4ECEF
:1012F0001AF0146E060EE15E145012000001C86B65
:10130000000EE66EE66AE66EE66A740EE66EE66A61
:10131000B4EC1AF0146E060EE15E14506492609400
:1013200062A402D06294FCD71200D9CFE6FFE1CFCD
:10133000D9FFE65200012D0ED26FFD0EC91553E103
:101340007E0EC915E8407F0B040DF3CFA7F0F4CF54
:10135000A8F0000EA727020EA823A7C0A9F0A8C0D6
:10136000AAF0A975A7C0E9FFA8C0EAFFEF503C0B9F
:10137000E842E8420D0835E1DF6A080EDF5C23E24F
:10138000A7C0E9FFA8C0EAFF020EE926000EEA2284
:10139000EE50EFCFEAFFE96EEF50E66EDF50EA6AFB
:1013A000300FE96E020EEA22E552E750EF6EA7C059
:1013B000E9FFA8C0EAFF020EE926000EEA22EE2AA3
:1013C000EF22DF2ADAD7A7C0E9FFA8C0EAFF020EA2
:1013D000E926000EEA22300EEE6E020EED6E0DD8FA
:1013E00007D03AD805D0FD0EC915040801E159D837
:1013F000E552E552E7CFD9FF12000001B76BD36B7E
:10140000D66BD76BCB6BB86BB1C0E9FFB2C0EAFF4C
:10141000EF9EB175B1C0E9FFB2C0EAFFEF9EB175B2
:10142000A9C0E9FFAAC0EAFFEF9EBB6BBC6BBD6B16
:10143000C06BC16BC26B8FD8000EE66EE66AE66EBB
:10144000E66A030EE66EE66AB4EC1AF0146E060E57
:10145000E15E14507AEF0DF0020E0001B85D02E17A
:101460003AEF0EF0B86BCB511AE1A9C0E9FFAAC060
:10147000EAFFEE52080EEF6EA9C0E9FFAAC0EAFF2C
:10148000020EE926000EEA22300EEE6E020EED6E1E
:10149000A9C0E9FFAAC0EAFF8C0EEF6E1200CB6B69
:1014A0001200D9CFE6FFE1CFD9FFE652B1C0E9FF84
:1014B000B2C0EAFFEF50400B01E0010EDF6E000109
:1014C000B175080EA45D0BE132C25CFF0F015C51E7
:1014D00003E00001100E02D00001040EA46FB80555
:1014E00026E1B1C0E9FFB2C0EAFF020EE926000E14
:1014F000EA22380EEE6E020EED6E5DDB020E00018A
:10150000B75D06E1B1C0E9FFB2C0EAFF840E0DD0BD
:10151000DF5006E1B1C0E9FFB2C0EAFFC80E05D056
:10152000B1C0E9FFB2C0EAFF880EEF6E0FD0C0AFC6
:101530000CD0C351C41107E005D0C4C0FAFF0001AC
:10154000C351F96EFADF0001C09FB86BE552E55256
:10155000E7CFD9FF120002013051600BE842E842A8
:10156000E842E842E842000901E0120031510C0A69
:1015700050E00B0A3FE00C0A31E0010A22E00B0ABE
:101580001EE0020A1CE0030A18E0080A10E0010A43
:101590000CE00F0A08E0030A01E012000001BB8F13
:1015A000080EA46F1200C3EF0CF0D9EF0EF000018B
:1015B000A50EB96F000EBA6F0CD020EF0DF00AEF38
:1015C0000BF034510001B96FBA6BA60EB927000EAB
:1015D000BA23BB81010EBC6FBB8F12000001BB8F11
:1015E00002013451EA6AA60FE96E000EEA2232C205
:1015F000EFFF1200000EE66EE66AE66EE66A020E85
:10160000E66EE66AB4EC1AF0146E060EE15E145053
:1016100012001200D9CFE6FFE1CFD9FF030EE12679
:101620000201320510E130511F0B00090CE10001ED
:10163000BB8F030E0201315D04E10001010EC76F93
:1016400002D00001C76B0201325101E003D13051D9
:101650001F0B020801E0FED034510F0B000901E11D
:10166000F9D034510F0B020801E2F4D0200E000132
:10167000A45D01E0EFD0BB8F020134BF16D034511E
:101680000F0BE96EEA6AD890E936EA36AB0EE92626
:10169000000EEA22EECFDEFFEDCFDDFF34510F0B5F
:1016A000EA6ACF0FE96E000E15D034510F0BE96EC8
:1016B000EA6AD890E936EA36B10EE926000EEA2247
:1016C000EECFDEFFEDCFDDFF34510F0BEA6ACC0F1A
:1016D000E96E000EEA22020EEFCFDBFFD950020FB7
:1016E000E96EDACFEAFFEF50010B03E1000EDF9461
:1016F00001D0DF8434BF0BD034510F0BE96EEA6A9E
:10170000D890E936EA36AB0EE926000E0AD03451FD
:101710000F0BE96EEA6AD890E936EA36B10EE9268F
:10172000000EEA22DECFEEFFDDCFEDFF030E315DCE
:1017300020E1DECFE9FFDDCFEAFFEF50800B11E0C3
:1017400034BF07D034510F0BEA6ACF0FE96E000E99
:1017500006D034510F0BEA6ACC0FE96E000EEA2274
:10176000EF82840EDECFE9FFDDCFEAFFE850EF1213
:1017700071D0DF74DECFE9FFDDCFEAFFEF50800BE1
:101780001BE0DECFE9FFDDCFEAFFEF9EDECFE9FF12
:10179000DDCFEAFFEF8C020EE66EE66ADECFE6FFF3
:1017A000DDCFE6FF050EE66EE66AB4EC1AF0146EC5
:1017B000060EE15E145005D0DECFE9FFDDCFEAFF73
:1017C000EF8CDF74D950020FE96EDACFEAFFEF50E9
:1017D000020B0EE1DECFE9FFDDCFEAFFEF50800B19
:1017E00032E0DECFE9FFDDCFEAFFEF50040B2BE163
:1017F000020134BF07D034510F0BEA6ACF0FE96EF4
:10180000000E06D034510F0BEA6ACC0FE96E000EC1
:10181000EA22EF923B0E146EDECFE9FFDDCFEAFF46
:10182000E850EF16020EE66EE66ADECFE6FFDDCF89
:10183000E6FF050EE66EE66AB4EC1AF0146E060ECC
:10184000E15E145007D03B0EDECFE9FFDDCFEAFFAB
:10185000E850EF16030EE15C02E2E16AE552E16E48
:10186000E552E7CFD9FF12000001D4514DE1010E3E
:10187000D46FD55149E1010ED56F020EB85D0DE16F
:10188000B1C0E9FFB2C0EAFFEE52EF6AB1C0E9FFB2
:10189000B2C0EAFFC80EEF6E1200B80535E1CB6B9F
:1018A000A7C0E9FFA8C0EAFFEE52080EEF6EA7C07E
:1018B000E9FFA8C0EAFF020EE926000EEA22300E78
:1018C000EE6E020EED6EA7C0E9FFA8C0EAFF840E1F
:1018D000EF6E010ECB6FA9C0E9FFAAC0EAFFEE527E
:1018E000080EEF6EA9C0E9FFAAC0EAFF020EE926C2
:1018F000000EEA22300EEE6E020EED6EA9C0E9FF78
:10190000AAC0EAFF800EEF6E12000001D66BD76B03
:10191000020EB85D18E1A9C0E9FFAAC0EAFFEE52C5
:10192000080EEF6EA9C0E9FFAAC0EAFF020EE92681
:10193000000EEA22380EEE6E020EED6EA9C0E9FF2F
:10194000AAC0EAFF1DD0BC510201365D0001BD51A5
:101950000201375904E236C2BCF037C2BDF02BD9C0
:10196000B1C0E9FFB2C0EAFF020EE926000EEA228A
:10197000380EEE6E020EED6EB1C0E9FFB2C0EAFFA6
:10198000C80EEF6E1200800E0201305D58E10001BA
:10199000C00EBB6F02013351030A2FE0010A09E0B8
:1019A000030A4BE10001EE0EB96F350EBA6F120E4D
:1019B0003ED03251F66EF76AD890F636F736AF0E53
:1019C000F626360EF7220900F5CFB9F00A00F5CF5A
:1019D000BAF0020E0001F76AB925F66EBA51F72285
:1019E0000800F5CFBCF0030EF76AB925F66EBA51C0
:1019F000F7220800F5CFBDF01200030E325D1AE2A7
:101A00003251F66EF76AD890F636F736B10EF626F2
:101A1000360EF7220900F5CFB9F00A00F5CFBAF07B
:101A2000B9C0F6FFBAC0F7FF0800F5500001BC6F5F
:101A3000BD6B12000001BB6B12000001BB6B1200FA
:101A4000D9CFE6FFE1CFD9FF020EE1260201386BC4
:101A5000396B30511F0B020A11E0030A0CE0010A36
:101A600035E10001BB8F020138810001C7052EE17D
:101A7000020138832BD00001BB8F28D00001BB8F1F
:101A8000020134BF0BD034510F0BE96EEA6AD890D3
:101A9000E936EA36AB0EE926000E0AD034510F0BB8
:101AA000E96EEA6AD890E936EA36B10EE926000E08
:101AB000EA22EECFDEFFEDCFDDFFDECFE9FFDDCFA7
:101AC000EAFFEF50040B02E0010E386F0001BBAFDC
:101AD00007D0380EB96F020EBA6FBB81020EBC6F11
:101AE000020EE15C02E2E16AE552E16EE552E7CF07
:101AF000D9FF120064980001BBBF2BD0C0AF09D042
:101B0000020EB86FD75101E100DF0001D56BD46B35
:101B10001200A9C0E9FFAAC0EAFFEE52080EEF6E5C
:101B2000A9C0E9FFAAC0EAFF020EE926000EEA22D8
:101B3000300EEE6E020EED6EA9C0E9FFAAC0EAFFFC
:101B40008C0EEF6EB1C0E9FFB2C0EAFF840EEF6EFB
:101B50001200020130AF0DD00001010EB86FD65156
:101B600001E1D3DE0001D56BD46BD35123E134EF17
:101B70000CF00001020EB86FA9C0E9FFAAC0EAFF8D
:101B8000EE52080EEF6EA9C0E9FFAAC0EAFF020EEE
:101B9000E926000EEA22300EEE6E020EED6EA9C0AE
:101BA000E9FFAAC0EAFF840EEF6ED56BD46BD35168
:101BB00001E15ADE1200D9CFE6FFE1CFD9FFE652AC
:101BC000080EDF6E0001BC5D000EBD590AE2BCC00C
:101BD000DFFFB75102E1010E03D0B70502E1020EAB
:101BE000B76FDF50156AE850BC5DBC6F1550BD592A
:101BF000BD6FB1C0E9FFB2C0EAFFEE52DFCFEFFF29
:101C0000380EC56F020EC66FBBB118D0DF502DE085
:101C1000B9C0F6FFBAC0F7FFB92B000EBA2308000F
:101C2000F550E66EC5C0E9FFC6C0EAFFC52B000E41
:101C3000C623E552E750EF6EDF06E8D7DF5015E028
:101C4000B9C0E9FFBAC0EAFFB92B000EBA23EF50C2
:101C5000E66EC5C0E9FFC6C0EAFFC52B000EC6236D
:101C6000E552E750EF6EDF06E9D7E552E552E7CFE0
:101C7000D9FF1200D9CFE6FFE1CFD9FF020EE1264E
:101C8000A7C0E9FFA8C0EAFFEE52EFCFDFFFDFCF2A
:101C900014F014500001C15D000EC25902E2C1C02F
:101CA000DFFFDF50146E156AE850C15DC16F15503B
:101CB000C259C26F010EDB6ADF50F36E010EDBCF3B
:101CC000F4FFF350F45C16E2010EDB50EA6A380FC1
:101CD000E96E020EEA22EF50E66EBEC0E9FFBFC019
:101CE000EAFFBE2B000EBF23E552E750EF6E010E58
:101CF000DB2AE2D7000ED880C155000EC25527E27C
:101D0000A9C0E9FFAAC0EAFFEE52080EEF6EA9C013
:101D1000E9FFAAC0EAFF020EE926000EEA22380E09
:101D2000EE6E020EED6EA7C0E9FFA8C0EAFFEF500D
:101D3000400B06E1A9C0E9FFAAC0EAFFC80E05D022
:101D4000A9C0E9FFAAC0EAFF880EEF6E28D0A9C09B
:101D5000E9FFAAC0EAFFEE52080EEF6EA9C0E9FF44
:101D6000AAC0EAFF020EE926000EEA22300EEE6E4D
:101D7000020EED6EA9C0E9FFAAC0EAFF840EEF6E65
:101D8000C351C41107E005D0C4C0FAFF0001C3511C
:101D9000F96EFADF0001C09FD35101E165DD020E4B
:101DA000E15C02E2E16AE552E16EE552E7CFD9FF7C
:101DB0001200D9CFE6FFE1CFD9FFE6520001BB8F79
:101DC000020EE66EE66AE66A540EE66E0F0EE66EE8
:101DD0005BEC1CF0146E050EE15E1450DF6ADF5000
:101DE000146E156A0C0E145C000E155810E2DF50CC
:101DF000040DF3CFE9FFF4CFEAFF000EE926020E4F
:101E0000EA22EE6AEE6AEE6AEE6ADF2AE8D7648CAE
:101E1000010EE66EE66AE66AA60EE66E000EE66E55
:101E20005BEC1CF0146E050EE15E1450649C000126
:101E3000080EB16F020EB26F000EA76F020EA86FF0
:101E4000A7C0A9F0AA6F32C2A5F0A55102E1100EF9
:101E500012D0010EE66EE66AA50EE66E000EE66E84
:101E6000010EE66EE66AB4EC1AF0146E060EE15E40
:101E700014500001200EA46FE552E552E7CFD9FFC0
:101E80001200D9CFE6FFE1CFD9FF020EE126000E06
:101E9000DE6E020EDD6EFD0EDB50E824166EFE0EC9
:101EA000DB50040DF3501624040DF4CF15F0D9CFF8
:101EB000E9FFDACFEAFFF350EE261550ED22DECF30
:101EC000E9FFDDCFEAFFEF9EFD0EDB500AE1FE0EDB
:101ED000EA6ADB34FE0BEA36E96EAB0EE926000E49
:101EE00009D0FE0EEA6ADB34FE0BEA36E96EB10E6B
:101EF000E926000EEA22DECFEEFFDDCFEDFFDECFDA
:101F0000E9FFDDCFEAFFEF9CDECFE9FFDDCFEAFF9F
:101F1000040EE926000EEA22EF8C020EE15C02E2DA
:101F2000E16AE552E16EE552E7CFD9FF1200D9CF61
:101F3000E6FFE1CFD9FF020EE126FD0EDBA407D0BC
:101F4000E66AFE0EDBCFE6FF9CDFE552E552FD0EB2
:101F5000DBA208D0010EE66EFE0EDBCFE6FF91DFBE
:101F6000E552E552FE0EDB50156A530F146E0F0E4C
:101F7000152214C0DEFF15C0DDFFDECFE9FFDDCF87
:101F8000EAFFFD0EDBCFEFFF020EE15C02E2E16A49
:101F9000E552E16EE552E7CFD9FF1200D9CFE6FF57
:101FA000E1CFD9FF020EE126FE0EDB5020E1A9C0F1
:101FB000E9FFAAC0EAFFEE52080EEF6EA9C0E9FFE2
:101FC000AAC0EAFF020EE926000EEA22300EEE6EEB
:101FD000020EED6EA9C0E9FFAAC0EAFF8C0EEF6EFB
:101FE000B1C0E9FFB2C0EAFF840EEF6E3BD0FD0E38
:101FF000DB50E824166EFE0EDB50040DF350162461
:10200000040DF3CF14F0F4CF15F0000E1426020ED9
:10201000152214C0DEFF15C0DDFF840EDECFE9FF00
:10202000DDCFEAFFE850EF12FD0EDB50E824166E1C
:10203000FE0EDB50040DF3501624010F040DF3CFF8
:1020400014F0F4CF15F0000E1426020E152214C061
:10205000DEFF15C0DDFF840EDECFE9FFDDCFEAFF36
:10206000E850EF12020EE15C02E2E16AE552E16E35
:10207000E552E7CFD9FF1200D9CFE6FFE1CFD9FF74
:10208000020EE126FD0EDB500AE0FE0EEA6ADB34AA
:10209000FE0BEA36E96EB10EE926000E09D0FE0EFF
:1020A000EA6ADB34FE0BEA36E96EAB0EE926000E77
:1020B000EA22EECFDEFFEDCFDDFFD9CFE9FFDACFA9
:1020C000EAFFEE50ED1003E1F36AF46A44D0DECF8C
:1020D000E9FFDDCFEAFF020EE926000EEA22FB0E41
:1020E000DBCFEEFFFC0EDBCFEDFFDECFE9FFDDCF78
:1020F000EAFFEE52FA0EDBCFEFFF400EDECFE9FF34
:10210000DDCFEAFFE850EF16880EDECFE9FFDDCF26
:10211000EAFFE850EF12FD0EDB500AE0FE0EEA6A1D
:10212000DB34FE0BEA36E96EB10EE926000E09D06B
:10213000FE0EEA6ADB34FE0BEA36E96EAB0EE926E8
:10214000000EEA22EF74DECF14F0DDCF15F014C0DC
:10215000F3FF15C0F4FF020EE15C02E2E16AE55212
:10216000E16EE552E7CFD9FF1200D9CFE6FFE1CF0C
:10217000D9FF64A84ED0FE0EEA6ADB34FE0BEA36C5
:10218000E96EB10EE926000EEA22EE50EFCFEAFF2B
:10219000E96E400EEE16EE6AEE6AEE6AFE0EEA6A2E
:1021A000DB34FE0BEA36E96EB10EE926000EEA22B8
:1021B000EE50EFCFEAFFE96EEE7CFE0EEA6ADB340A
:1021C000FE0BEA36E96EB10EE926000EEA22EF7444
:1021D000400E146EFE0EEA6ADB34FE0BEA36E96E40
:1021E000B10EE926000EEA22EE50EFCFEAFFE96ECB
:1021F0001450EF16FE0EEA6ADB34FE0BEA36E96E87
:10220000B10EE926000EEA22EE50EFCFEAFFE96EAA
:10221000EF7CE552E7CFD9FF1200646A606A0001E3
:10222000A46B12000001A45114E1646A606A160EE6
:10223000616E0F019F0E5B6F7B0E606ED08EA2846D
:10224000A084F28E64B602D06486FCD70001010E31
:04225000A46F120065
:0C22540066EC16F0FB0EDBCFF3FFDB06A0
:10226000F35000090AE0B4EC16F0FA0E1FEC17F078
:10227000F3E1151CF1E1010E01D0000E95EF16F00F
:1022800066EC16F03B0EE12402E3E168E652E16EF3
:10229000010EDB6A020EDB6AF90EDBCFF6FFFA0EE7
:1022A000DBCFF7FFFB0EDBCFF8FF0800F550DF6E4A
:1022B000DF5002E1B9EF15F0250EDF5C02E0ACEF74
:1022C00015F0030EDB6A040EDB6A050EDB6A060EF0
:1022D000DB6A070EDB6ACEEC15F02D0EDF5C0CE03E
:1022E0002B0EDF5C09E0200EDF5C06E0230EDF5CD6
:1022F00003E0300EDF5C1AE1DF50300A14E0130A0D
:102300000FE0030A0AE00B0A05E0060AE4E1030E07
:10231000DB80E1D7030EDB82DED7030EDB84DBD765
:10232000030EDB86D8D7030EDB88D5D72A0EDF5CF9
:102330001BE1CAEC15F018EC16F010E0030EDB8080
:1023400008680968130EDBCF0DF0140EDBCF0EF01A
:1023500089EC1BF0040E06C0DBFF03D0130E01EC6A
:1023600016F0CEEC15F00BD0090EDB6A6FEC16F010
:1023700003E0E3EC16F0FAD7090E01EC16F0030EB9
:10238000DBB0DB982E0EDF5C1BE1CEEC15F02A0EE5
:10239000DF5C0BE1CAEC15F018EC16F003E1130E4C
:1023A00053EC16F0CEEC15F00BD0090EDB6A6FEC97
:1023B00016F003E0E3EC16F0FAD7090E53EC16F032
:1023C000680EDF5C07E1CEEC15F0680EDF5C1DE106
:1023D000030E18D0740EDF5C17E07A0EDF5C14E099
:1023E000480EDF5C06E0540EDF5C03E05A0EDF5C53
:1023F00002E1020E07D06C0EDF5C03E06A0EDF5CC8
:1024000004E1010EA6EC16F0C9DBDF506E0A01E113
:102410007FD31E0A01E192D1200A01E18FD13F0A48
:1024200001E149D11A0A01E146D10D0A01E143D186
:10243000200A01E140D13A0A01E13DD1200A01E13F
:102440003AD1260A01E135D10D0A01E132D11A0A49
:1024500001E1D9D0200A4AE0300A1FE0460A0EE026
:10246000250A01E083D3D950F90FE96EFF0EDA2077
:10247000EA6E010EEE5E000EEE5AEE5AB4EC16F065
:10248000250EE66E95DB03E1151C01E169D3B0EC86
:1024900016F001E26BD3DB2A69D3080EDB6A040E67
:1024A000DB50010806E2040EDB0478EC16F0DB508A
:1024B0008BDB080EDB5009E0030EDB50010B05E15E
:1024C00072DB01E04DD3080EDB6A64DBEFCFDFFF88
:1024D00028EC17F003E1151C01E142D3B0EC16F033
:1024E00001E3DB2A60DB01E141D33AD3070EDB5085
:1024F00002080FE1F4EC16F0030EBBEC16F00E0E22
:10250000EECFDBFF0F0EEECFDBFF100EEECFDBFFCB
:1025100020D0F70EDBCF17F0F80EDBCF18F0020E4D
:10252000175E000E185AF70E17C0DBFFF80E18C022
:10253000DBFF17C0E9FF18C0EAFFABEC16F0166A24
:102540000E0E14C0DBFF0F0E15C0DBFF100E16C001
:10255000DBFF0E0EDBCFE6FF0F0EDBCFE6FF100E2C
:10256000DBCFE6FF83EC1CF0E552E552E552130E9B
:1025700007C0DBFF140E08C0DBFF060EDB5005E0D2
:10258000130EEFEC16F001E26ADB13EC17F002E237
:10259000130E37DBD6EC16F006E0040EEFEC16F067
:1025A00002E2050E2EDB030EDBB005D0FCDA01E003
:1025B000D7D2080EDB6A090EDB6A0E0EDBCFF6FF00
:1025C0000F0EDBCFF7FF100EDBCFF8FF0800F55042
:1025D000DF6EDF5014E019EC17F011E228EC17F071
:1025E00003E1151C01E1BCD2BBDB01E3DB2A090ED0
:1025F000DB2AD9500E0FE96E000ECBDBE7D7D3DA1A
:1026000001E1B4D2ADD2C6DA110EEECFDBFF120E6D
:10261000EDCFDBFF110EDBCFE6FF120EDBCFE6FFC7
:1026200075EC1CF0E552E552130EF3CFDBFF140EF0
:10263000F4CFDBFF060EDB5004E0130ED0DB01E22B
:102640000EDB13EC17F002E2130EDBDAAFDB05E072
:10265000040EC5DB02E2050ED4DA030EDBB005D0B2
:10266000A2DA01E07DD2080EDB6A090EDB6A110EE8
:10267000DBCFE9FF120EDBCFEAFFEFCFDFFFDF504A
:1026800014E0D7DB12E2E4DB03E1151C01E168D2C0
:1026900067DB01E3DB2A090EDB2A110EDB2ADBCF25
:1026A000E9FF120EE8E3DB2AE6D77DDA01E15ED22C
:1026B00057D2030EDB8E070EDB0410E195DB040E10
:1026C0005ADB0A0EEECFDBFF0B0EEECFDBFF0C0E5C
:1026D000EECFDBFF0D0EEECFDBFF6CD0070EDB5035
:1026E00003082CE1030EDBAE0DD0B2DA020E76DA6F
:1026F000EFCF14F0156A166A176A14AE39D0156850
:10270000166835D0F70EDBCF15F0F80EDBCF16F0DC
:10271000020E155E000E165AF70E15C0DBFFF80EFE
:1027200016C0DBFF15C0E9FF16C0EAFFEFCF14F0BB
:102730000A0E14C0DBFF0B0EDB6A38D0070EDB502D
:10274000020809E1030EDBAE04D059DB16AE10D04F
:102750000ED055DB0DD0030EDBAE12D079DA020EAF
:102760003DDAF9DA166A176A15AE02D016681768EC
:10277000E2DA0C0E16C0DBFF0D0E17C0DBFF1AD01D
:10278000F70EDBCF16F0F80EDBCF17F0020E165E59
:10279000000E175AF70E16C0DBFFF80E17C0DBFF4E
:1027A00016C0E9FF17C0EAFFD6DAC5DA0C0EDB6AFD
:1027B0000D0EDB6A060EDB5005E1010EF36E050E11
:1027C000F3CFDBFF150EDB6A160EDB6AD950370F2D
:1027D000146E000EDA20156E390E14C0DBFF3A0EAF
:1027E00015C0DBFF380EDB6A080EDB6A0A0EAEDAB4
:1027F000DF50780A12E0200A10E0280A0CE0200AD4
:102800000AE03F0A06E00D0A02E0200A08E1020E93
:1028100005D0080E03D0080EDF26100E97DA030E3F
:10282000DBBE02D0DB92DB94DB50800B24E08ADA43
:10283000D890030EEB50000A08E6000EEE5C000E86
:10284000EE58000EEE58000EEE5815E213DA0B6843
:102850000C680D680E68EAEC1CF00A0E02C0DBFF83
:102860000B0E03C0DBFF0C0E04C0DBFF0D0E05C01A
:10287000DBFF2D0E08D0030EDBA202D02B0E03D0FF
:10288000DBA408D0200EF36E170EF3CFDBFF150E7E
:10289000DB2A02D0170EDB6A050EDB5003E1B7D945
:1028A00001E189D0620E146E3B0E156E000E166E9D
:1028B000070EDBCF17F0186A196A1A6A17C00BF0F7
:1028C00018C00CF019C00DF01AC00EF0D3D922ECCC
:1028D0001DF014500224F36E15500320F46E1650B0
:1028E0000420F86EF4CFF7FFF3CFF6FF0800090ECF
:1028F000F5CFDBFF580EDF5C0FE1610EF36E090EC2
:102900007BD90AE3200E146E090EDBCFE7FF1450CB
:10291000E75E090EE7CFDBFF070EDBCF14F0156A89
:10292000166A176A0FDA14C00BF015C00CF016C047
:102930000DF017C00EF0EECF06F0EECF07F0EECFA1
:1029400008F0EFCF09F022EC1DF009C0EDFF08C040
:10295000EDFF07C0EDFF06C0EFFF390EDBCFE9FF4B
:10296000DB063A0EDBCFEAFF01E2DB06090EDBCF26
:10297000EFFF150EDB2A4BD995E1030EDBA61DD028
:102980006F0EDF5C06E1C1D918E3150EDB285BDAB8
:1029900014D0780EDF5C09E0580EDF5C06E0620EB2
:1029A000DF5C03E0420EDF5C08E1020EF36E160E00
:1029B000F3CFDBFF02D0150EDB6A030EDB50100BEA
:1029C0000EE0040EDBCF14F0050EDB50D88014545B
:1029D00006E2060EDB5003E1040EDB5034DA95D933
:1029E0000AE2050EDBCFE7FF150EDB50E75E050EB2
:1029F000E7CFDBFF02D0050EDB6A040EDBCF14F05D
:102A0000160E45D9D880145414E2160EDBCFE6FF1B
:102A1000150EDBCFE6FF040EDBCFE6FF050EDB5025
:102A2000E552E75CE552D880E754E552D880E75498
:102A30005FD9030EDB50010B0BE1080EDB5008E001
:102A4000B2D801E08DD0080EDB50BED8080EDB6A8C
:102A5000170EDB5007E088D9170EF1D903E1151CDA
:102A600001E17ED0160EDB5016E07ED9300EE66E08
:102A70009FD802E1151C74E077D9DFCFE6FFA8EC00
:102A80001CF0E552E552E552F4CF15F00001F31CBD
:102A900002E1151C65E0050EDBCF14F0160EDB50CD
:102AA000D880145409E2050EDBCFE7FF160EDB5089
:102AB000E75E050EE7CFDBFF300EE66E050ECBD9E5
:102AC0004FE1390EDB2ADBCFE9FF3A0E01E3DB2AC7
:102AD000DBCFEAFF090EEFCFDBFFDB500EE044D97E
:102AE000090EADD902E1151C3BE0390EDB2ADBCF24
:102AF000E9FF3A0EEDE3DB2AEBD755D831E1160EAC
:102B0000DBCFE6FF080EC3D8E552E7245DD82ED010
:102B1000070EDB50030A1CE0010A14E0030A07E079
:102B20007BD9DBCFEEFF020EDBCFEDFF1FD0F5D858
:102B3000196A17AE02D0186819682CD8BCD819C009
:102B4000EEFF14D0EAD817BE186824D8B4D80ED037
:102B500063D9DBCFEFFF0AD07BD905E1151C03E178
:102B6000F368F46810D0FCD801E3DB2A79D955EF7B
:102B700011F0010EDBCF14F0020EDBCF15F014C004
:102B8000F3FF15C0F4FF3B0EE15C02E2E16AE5529F
:102B9000E16ECBD029D9020EBBEF16F061D9080047
:102BA000F550DF6E1200200EE66E080E2BEF17F0C8
:102BB000A8EC1CF0E552E552E552F3CF14F0F4CF47
:102BC00015F00001F31C1200146E156AD950010FA4
:102BD0004DD91450EE261550ED221200185E000E4D
:102BE000195AF70E18C0DBFFF80E19C0DBFF18C02A
:102BF000E9FF19C0EAFF1200DBCFF4FFF350F45CE9
:102C00001200DB50E76E040EE7CFDBFF12000A0E66
:102C1000DBCF14F00B0EDBCF15F00C0EDBCF16F074
:102C20000D0EDBCF17F014501510161017101200F0
:102C3000130EEECFDBFF140EEDCFDBFF130EDBCF59
:102C400014F0140EDBCF15F00001800E15141200E5
:102C5000F70EDBCF18F0F80EDBCF19F01200050EDF
:102C6000DB50E66ED950130F01D9E552E750EE6EF6
:102C7000ED6A12000A0EDBCF06F00B0EDBCF07F079
:102C80000C0EDBCF08F00D0EDBCF09F01200DBCF0E
:102C9000E6FF150EDBCFE6FF050EDB50E552E7241D
:102CA000E552E7241200DB50CED8010EF36E060E7B
:102CB000F3CFDBFF1200EE50EFCFEAFFE96E16C054
:102CC000EEFF17C0EEFF18C0EEFF1200D9CFE6FFEF
:102CD000DACFE6FFE1CFD9FFE2CFDAFF1200DFCF94
:102CE000E6FFE66A63EC1DF0E552E552F350120090
:102CF000E76E080EE7CFDBFF1200EECF14F0EECF49
:102D000015F0EFCF16F0176A1200050EDBCF14F0A6
:102D1000150EDB50D88014541200010EDBCF16F0D4
:102D2000020EDBCF17F0186A1200E552E5CFDAFF8A
:102D3000E7CFD9FF12000A0E14C0DBFF0B0E15C03F
:102D4000DBFF1200D9500A0F36EF17F0F36E070EB3
:102D5000F3CFDBFF1200EECF14F0EFCF15F012002F
:102D6000010EDB2A020E1200FC0EDBCFE6FFFD0E89
:102D7000DBCFE6FF1200145E000E155AF70E14C0EA
:102D8000DBFFF80E15C0DBFF14C0E9FF15C0EAFF3A
:102D90001200DA20EA6EEF2AEECFF6FF000EEF22E5
:102DA000EECFF7FFEF22EECFF8FF1200040EDBCFDD
:102DB000E6FF130EDB50E552E75C9ADFDB5004DFE1
:102DC000060EDB501200090EDB500A0DF350DF2413
:102DD000D00FE76E090EE7CFDBFFCEEF15F0DB502B
:102DE000F36E050EFCEF15F0F70EDBCF14F0F80EC6
:102DF000DBCF15F01200DFCFE6FFD8EF15F028DFAC
:102E0000030EECDE7DEF16F02AEC11F0E552E552F0
:102E1000E552E55200091200BDDEEE50EFCFEAFFA9
:102E2000E96E010E1200130EDB50F36E040EFCEF80
:102E300015F0040EDB50F36E090EFCEF15F0DBCF3E
:102E4000E6FFD8EF15F0E76E050EE7CFDBFF1200C7
:102E50008BDFFBEF16F0DBCFE6FF86DF04EF17F02A
:102E6000D950F90FE96EFF0EC9EF16F0E96E000EAA
:062E7000DA20EA6E1200F8
:0A2E7600020130511F0B010801E0BA
:102E800012003051600BE842E842E842E842E84272
:102E9000010801E01200345103E0340501E01200A2
:102EA0003151220A31E0030A24E0010A15E0210A27
:102EB0000DE0010A01E012000001E90EB96F000EF9
:102EC000BA6F080EBC6FBD6BBB8121D00001E90E4B
:102ED000B96F000EBA6F1BD036C2C1F037C2C2F054
:102EE0000001C80EBE6F020EBF6FC36BC46BC08FF4
:102EF00012000001C80EB96F020EBA6F070EBC6F48
:102F0000BD6BC10EBB6F120032C2E4F00001BB8F7B
:102F100012000201C86B4B0EC96FCA6BCB6BCC6B36
:102F2000CD6B080ECE6F0001D86B1A0EE66E010E47
:102F3000E66E97EC0FF0E552E5521E0EE66E020EBD
:102F4000E66E97EC0FF0E552E552400EE66E480E45
:102F5000E66E020EE66EE66A020EE66E3CEC10F0DD
:102F6000146E050EE15E1450F3CFE0F0F4CFE1F003
:102F70000001E26BE36BD96B1200D9CFE6FFE1CF22
:102F8000D9FF0001D86BE051E11102E1000E08D039
:102F9000E0C0E9FFE1C0EAFFEF50800B01E0010E65
:102FA000000945E1FC0EDBCF14F0E0C0E9FFE1C011
:102FB000EAFFEE52EF50D880145408E2E0C0E9FF77
:102FC000E1C0EAFFEE52FC0EEFCFDBFFD86BFC0E48
:102FD000DB50D85D19E2D851EA6A480FE96E020E5B
:102FE000EA22EF50E66ED851E76EFD0EDBCFE9FF27
:102FF000FE0EDBCFEAFFE750E926000EEA22E5529B
:10300000E750EF6ED82BE3D7400EE66E480EE66E23
:10301000020EE66EE66A020EE66E3CEC10F0146EEE
:10302000050EE15E1450F3CFE0F0F4CFE1F00001C3
:10303000D851E552E7CFD9FF1200D9CFE6FFE1CF53
:10304000D9FFA0940001D9510CE1FD0EDBCFDAF0DD
:10305000FE0EDBCFDBF0FC0EDBCFDEF0010EDF6F10
:10306000D96FA084E552E7CFD9FF1200D9CFE6FF90
:10307000E1CFD9FF030EE126A0940001D9512DE143
:10308000DF6AFD0EDBCF08F0FE0EDBCF09F0DE526B
:1030900008C0DEFF09C0DDFFDD52DF2ADF50146EFD
:1030A000156AFF0E141802E115500BE0010EDBCF7C
:1030B000E9FFDB2A020EDBCFEAFF01E3DB2AEF5058
:1030C000ECE1FD0EDBCFDAF0FE0EDBCFDBF0DFCF85
:1030D000DEF00001010EDF6FD96FA084030EE15C0A
:1030E00002E2E16AE552E16EE552E7CFD9FF120054
:1030F000D9CFE6FFE1CFD9FF030EE126A09400016E
:10310000D9512EE1DF6AFD0EDBCF08F0FE0EDBCFDA
:1031100009F0DE5208C0DEFF09C0DDFFDD52DF2A04
:10312000DF50146E156AFF0E141802E115500CE002
:10313000010EDBCFF6FFDB2A020EDBCFF7FF01E348
:10314000DB2A0800F550EBE1FD0EDBCFDAF0FE0ED6
:10315000DBCFDBF0DFCFDEF00001DF6B010ED96FDC
:10316000A084030EE15C02E2E16AE552E16EE55201
:10317000E7CFD9FF1200D9CFE6FFE1CFD9FF020E8A
:10318000E126A0940001E251E31102E1000E08D013
:10319000E2C0E9FFE3C0EAFFEF50800B01E0010E5F
:1031A000000906E1030ED95D01E1D96BD95102E1B5
:1031B000A0847ED0020ED95D16E1E66A000EE66EAE
:1031C000E66A010EE66E020EE66E3CEC10F0146E3E
:1031D000050EE15E1450F3CFE2F0F4CFE3F000010E
:1031E000030ED96F64D0D90562E1400E146E156AE2
:1031F000DE51145C000E155803E2400EDF6E02D063
:10320000DEC0DFFFDF50DE5DDE6F880EDC6F020E9A
:10321000DD6F010EDFCFDBFFDF5116E1010EDB506A
:1032200028E0DAC0F6FFDBC0F7FF0800F550DCC08D
:10323000E9FFDDC0EAFFEF6EDC2B000EDD23DA2BA9
:10324000DB23010EDB06EAD7010EDB5012E0DAC009
:10325000E9FFDBC0EAFFEF50DCC0E9FFDDC0EAFFB9
:10326000EF6EDC2B000EDD23DA2BDB23010EDB06F9
:10327000EBD70001DE5107E1400EDF5C02E1020EF8
:1032800001D0030ED96FDFCFE6FF880EE66E020E87
:10329000E66E010EE66E020EE66E3CEC10F0146E69
:1032A000050EE15E1450F3CFE2F0F4CFE3F0A0841A
:1032B000020EE15C02E2E16AE552E16EE552E7CF1F
:0432C000D9FF120020
:0C32C400DACFE4FFE2CFDAFFE9CFE4FF4D
:1032D000EACFE4FFF6CFE4FFF7CFE4FFF5CFE4FF5A
:1032E000F3CFE4FFF4CFE4FFFACFE4FF00EE00F009
:1032F000140EE80403E3EECFE4FFFBD700EE14F076
:10330000070EE80403E3EECFE4FFFBD7E6529FECA1
:1033100008F0E55200EE1AF0070EE80403E3E5CFEB
:10332000EDFFFBD700EE13F0140EE80403E3E5CF46
:10333000EDFFFBD7E5CFFAFFE5CFF4FFE5CFF3FFD5
:10334000E5CFF5FFE5CFF7FFE5CFF6FFE5CFEAFFE5
:10335000E5CFE9FFE5CFDAFF1100D8CFE4FFE0CFFA
:10336000E4FFE46EDACFE4FFE652E552E5CFDAFFA0
:10337000E550E5CFE0FFE5CFD8FF100007D800010A
:10338000A45102E112EC11F021D8F9D70F0EC112AD
:103390000FEC08F0BA6AC00EBB6E120EBC6E080EBF
:1033A000946E8F0E6D6E1200600EE66E75EC1DF061
:1033B000E55212003C0EE66E75EC1DF0E55212006F
:1033C0000C0EE66E75EC1DF0E5521200D9CFE6FF4B
:1033D000E1CFD9FF130EE126DE6ADD6A020EDB6A59
:1033E000030EDB6A010E826E8B6E6DBC48D06D5091
:1033F000400B0BE1020EDBCF14F0030EDBCF15F018
:10340000C80E145C000E155812E2020EDBCF16F047
:10341000030EDBCF17F0D00E165C070E175807E22D
:10342000CFDF020EDB2A030EE2E3DB2AE0D7D9501E
:10343000020FE96EDACFEAFFD00EEE1803E1070EB5
:10344000ED185CE0020EDBCF17F0030EDBCF18F0B7
:10345000196A600E146EEA0E156E166A14C007F033
:10346000086E16C009F017C00CF018C00DF019C096
:103470000EF05CEC1BF007C0DEFF08C0DDFFD9CF0B
:10348000E9FFDACFEAFF2C0ED880EE54010EED549E
:1034900035E3DECF14F0DDCF15F01E0E145C000E08
:1034A00015582CE30001D95127E1DECFE6FFDDCF2F
:1034B000E6FF730E146E3B0E156E166A14C0E6FF1F
:1034C000E66E16C0E6FFD950040FE66E000EDA2055
:1034D000E66EB6EC1BF0176E070EE15E1750D95082
:1034E000040FE66E000EDA20E66E36EC18F0E552B8
:1034F000E5520001010EA06FBBEC18F0130EE15C69
:1035000002E2E16AE552E16EE552E7CFD9FF12002F
:103510001200120012003BEF17F0120089EF17F0B3
:103520000001C70520E10001C8051DE1A094F1DFFD
:1035300064920001C86B0001100EA26F0E0EA36F03
:10354000A207000EA35BA251A311FAE16484080E46
:10355000A26F070EA36FA207000EA35BA251A311D7
:10356000FAE16494A0841200D9CFE6FFE1CFD9FF3D
:10357000FD0EDBCF08F0FE0EDBCF09F0050E0818BC
:1035800001E109502FE0E868081802E17F0E0918F0
:1035900028E0030E081801E1095021E0020E081886
:1035A00001E109501AE0010E081801E1095013E089
:1035B000740E081801E109500CE0750E081801E1BD
:1035C000095005E0720E08180DE109500BD0A0DF7C
:1035D00009D09FDF07D0A2DF05D09FDF03D09BDF9C
:0E35E00001D098DF010EE552E7CFD9FF1200AF
:0235EE001201C8
:1035F000000202000008D804AA0000010102000134
:1036000009024300020100C0320904000001020265
:103610000100052400100104240202052406000113
:1036200005240100010705810308000209040100C7
:10363000020A00000007050202400000070582029E
:1036400040000004030904340357004300530020E2
:10365000002D0020005400650063006E006F006CB8
:10366000006F00670069006100200020002000203A
:103670000020002000200020002E003403570043CB
:103680000053002000500075006C0073006500209E
:10369000002D00200055005300420020005200651C
:1036A000006300650069007600650072002000007C
:0736B00036433647367B3636
:0836B800006A0EAE67EF1BF083
:1036C0000C6C0D1E0E1EE86A0D220E22001E09AEA5
:1036D00071EF1BF0076C081E091EE86A0822092218
:1036E000001E46EC1DF009BE84EF1BF000AE000C7E
:1036F000076C081E091EE86A08220922036C041ED2
:10370000051E04220522000C00BE78EF1BF0018884
:10371000FF0C09C013F008C012F008500D02F4CFDE
:1037200007F0F3CF06F009500E02F4CF09F0F3CF03
:1037300008F00D02F3500726F4500822E86A092227
:1037400012500E02F3500726F4500822E86A0922AC
:103750000EAEAFEF1BF01250085E1350095A13AEB5
:0C376000000C0D50085E0E50095A000CC1
:04376C00D9CFE6FFCC
:10377000DACFE6FFE1CFD9FFE2CFDAFFE652E65239
:10378000E652E652D950F90F146EFF0EDA20156E8C
:10379000020E14C0DBFF030E15C0DBFF020EDBCFF1
:1037A000E6FF030EDBCFE6FFF90EDBCFE6FFFA0EF6
:1037B000DBCFE6FFFB0EDBCFE6FFD950FC0FE66E5A
:1037C000FF0EDA20E66E40EC11F0146E070EE15C9D
:1037D00002E2E16AE552E16E1450F3CFDEFFF4CF6E
:1037E000DDFFFC0EDBCFE9FFFD0EDBCFEAFFEF6A6A
:1037F000DECF14F0DDCF15F014C0F3FF15C0F4FFD9
:10380000040EE15C02E2E16AE552E16EE552E5CFC9
:08381000DAFFE7CFD9FF120037
:08381800060EF66E100EF76EAD
:10382000000EF86E00010900F550F66F0900F55022
:10383000F76F03E1F66701D03DD00900F550F16F55
:103840000900F550F26F0900F550F36F0900090007
:10385000F550E96E0900F550EA6E0900090009000B
:10386000F550F46F0900F550F56F09000900F6CF27
:10387000F8F0F7CFF9F0F8CFFAF0F1C0F6FFF2C0A8
:10388000F7FFF3C0F8FF0001F45302E1F55307E03E
:103890000900F550EE6EF407F8E2F507F9D7F8C025
:1038A000F6FFF9C0F7FFFAC0F8FF0001F607000EB7
:0638B000F75BBFD7120018
:0A38B600FE0EE3CFE9FFFF0EE3CFA3
:1038C000EAFFE9CFF3FFEACFF4FFFB0EE35003E199
:1038D000FC0EE35009E0FB0EE30602E2FC0EE306F9
:1038E000FD0EE350EE6EF1D71200FE0EE3CFE9FFBE
:1038F000FF0EE3CFEAFFF36AF46AEE5203E0F34A05
:10390000F42AFBD71200FF0EE3CFF8FFE552FF0EBB
:10391000E3CFF7FFE552FF0EE3CFF6FFE552E66A8D
:10392000E66AE66A0900F55209E0FD0EE32A05E1C0
:10393000FE0EE32A02E1FF0EE32AF4D7FD0EE3CFE9
:1039400007F0FE0EE3CF08F0FF0EE3CF09F0120000
:10395000D9CFE6FFDACFE6FFE1CFD9FFE2CFDAFF3A
:10396000FB0EDBCF14F0FC0EDBCF15F00001800E58
:1039700015141AE1FB0EDBCFE9FFFC0EDBCFEAFFEB
:10398000EECFF3FFEDCFF4FFEE2A000EEF22F3CFE0
:10399000E9FFF4CFEAFFFD0EDBCFEFFFEF50156A32
:1039A000F36E15C0F4FF10D0FB0EDB50FE0806E1ED
:1039B000FD0EDBCFE6FFA3EC1DF005D0FD0EDBCF47
:1039C000E6FF07EC08F0E552E552E5CFDAFFE7CF76
:0439D000D9FF120009
:0C39D40006500B02F3CF02F0F4CF03F01A
:1039E0000C02F3500326000EF420046E06500D0264
:1039F000F3500426000EF420056E06500E02F3501C
:103A0000052607500B02F3500326F4500422000E43
:103A1000052207500C02F3500426F45005220750EB
:103A20000D02F350052608500B02F3500426F45003
:103A3000052208500C02F350052609500B02F350E2
:043A40000526120045
:0C3A4400056A046A036A026A200EE76E3D
:103A5000D89006360736083609360236033604365D
:103A600005360B50025C0C5003580D5004580E5094
:103A7000055809E30B50025E0C50035A0D50045ACE
:0C3A80000E50055A062AE72EE4D712006B
:043A8C00056A046A59
:103A9000036A180EE76ED8900736083609360336E3
:103AA000043605360C50035C0D5004580E50055872
:103AB00007E30C50035E0D50045A0E50055A072AB6
:063AC000E72EEAD7120018
:0A3AC600F36AF46AFF0EE124E96ED2
:103AD000FF0EE220EA6EED6607D02F0EEF6404D0F1
:0A3AE0003A0EEF6001D0F32A120045
:063AEA00FF0EE3501B6E0D
:103AF000480E01D04C0EE76EE72EFED7E76AE72EA0
:0A3B0000FED71B2EF7D700001200BD
:063B0A00000EF36E00EE58
:103B100000F0030E01D81200EA6002D0EE6AFCD772
:0A3B2000F350E9601200EE6AFCD7D2
:063B2A0011EE00F021EE97
:103B300000F0F86A019C0CEC1CF008EC08F0BEECFC
:063B400019F0FBD7120092
:0A3B4600FF0EE350ACBA04D0AF6AE2
:103B5000AB8EAC8A949CACA2FED7AD6EF36EF46AC9
:023B6000120051
:0E3B62003031323334353637383961626364BE
:033B700065660087
:0D3B730046433D25336462706D0D0A00006D
:020000040030CA
:0100000000FF
:0100010032CC
:0100020001FC
:010003001EDE
:0100050000FA
:0100060001F8
:0100080003F4
:01000900C036
:01000A0003F2
:01000B00E014
:01000C0003F0
:01000D0040B2
:00000001FF
